:100000000C94DE010C940B020C940B020C940B026A
:100010000C940B020C940B020C940B020C940B022C
:100020000C940B020C940B020C940B020C940B021C
:100030000C940B020C940B020C940B020C940B020C
:100040000C940B020C940B020C940B020C940B02FC
:100050000C940B020C940B020C940B020C943618AB
:100060000C940B020C9415120C9441130C940B027B
:100070000C940B020C940B020C940B020C940B02CC
:100080000C940B020C940B020C940B020C940B02BC
:100090000C944E120C9480130C940B020C940B02D3
:1000A0000C940B020C940B020C940B020C940B029C
:1000B0000C940B020C940B020C940B020C940B028C
:1000C0000C940B020C940B020C940B020C948712F0
:1000D0000C94BF130C940B020C94C0120C94FE13DE
:1000E0000C940B02646973636F6E6E656374656470
:1000F00020757362206465766963650A00666F75B2
:100100006E6420706F737369626C652064657669D4
:1001100063652E0A20737769746368696E6720745B
:100120006F2073657269616C206D6F64650A00668B
:100130006F756E6420616E64726F696420616365BF
:1001400073736F7279206465766963650A000A4487
:1001500065766963652064657363726970746F7234
:100160002063616E6E6F74206265207265747269BF
:10017000657665642E20547279696E6720616761C7
:10018000696E0A0052657175657374696E672064E3
:1001900065766963652064657363726970746F72F4
:1001A0002E0A000A4465766963652061646472659D
:1001B000737365642E2E2E200043616E27742073A6
:1001C000657420636F6E66696720746F20310A0062
:1001D00063616E27742066696E6420616363657372
:1001E000736F727920656E64706F696E74730075D9
:1001F0006E6B6F776E206465736320747970652011
:1002000000696E7465726661636520646573630A74
:1002100000636F6E66696720646573630A004361FB
:100220006E27742067657420636F6E66696720644B
:10023000657363726970746F720A00636F6E6669CA
:10024000672064657363726970746F7220746F6F76
:10025000206C617267650A0043616E2774206765D0
:100260007420636F6E66696720646573637269707A
:10027000746F72206C656E6774680A000A006465AA
:100280007669636520737570706F72747320707215
:100290006F74636F6C200000002100240027002A87
:1002A000002D003000330001010000040107010AA5
:1002B0000100002200250028002B002E0031003410
:1002C0000002010000050108010B010000200023CD
:1002D00000260029002C002F00320000010000033E
:1002E00001060109010505050507050808080802BA
:1002F0000202020A0A0808040404040101010101BF
:100300000101010303030303030303040707070CAD
:100310000C0C0C0C0C0C0C02020202060606060663
:100320000606060B0B0B0B0B0B0B0B010210202010
:100330000808102040102040800201020108040239
:1003400001010204081020408080402010080402AF
:100350000180040201804020100804020108040208
:10036000010102040810204080010204081020400E
:10037000800000090A02080B0C0D070603040100A7
:10038000000000000000000000000000000000006D
:100390000000000000000000000000000011100F2D
:1003A000000000000000000000000000000000004D
:1003B00000000000000000007702681511241FBE35
:1003C000CFEFD1E2DEBFCDBF00E00CBF12E0A0E076
:1003D000B2E0E6E3F5E300E00BBF02C007900D9248
:1003E000AE3FB107D9F71BBE18E0AEEFB2E001C0D7
:1003F0001D92A137B107E1F713E0CCEBD3E004C0C5
:100400002297FE010E94951AC83BD107C9F70E94A6
:1004100027180C94991A0C9400008E5F9E4F0E942E
:10042000A80D08958E5F9E4F0E94111108958E5F52
:100430009E4F0E94B51108951F93CF93DF93EC0157
:100440008881882331F169818A81861790F4162F7B
:10045000109570E06D5F7F4F6C0F7D1FCE018E5F3A
:100460009E4F412F50E00E94580D19828881811BB8
:100470008883698170E06D5F7F4F6C0F7D1F4881BD
:10048000CE018E5F9E4F50E00E94580D8A81898375
:100490001882DF91CF911F9108958E5F9E4F0E9429
:1004A000F80D0895CF92DF92EF92FF920F931F9372
:1004B000FC011082118212828E5F9E4F60E072E01A
:1004C0004BE052E02BE132E004E212E0F8E2EF2EE2
:1004D000F2E0FF2EEDE4CE2EE2E0DE2E0E94BF1110
:1004E0001F910F91FF90EF90DF90CF9008958EEFC6
:1004F00092E00E9452020895EF92FF920F931F9391
:1005000084E061E00E94511984E061E00E94041AD5
:1005100082E0E82EF12C012D112D60E874E88EE1C7
:1005200090E0A80197010E94781A84EB95E0BA0147
:10053000A90122E00E94200D6AE070E080E090E0D6
:100540000E948C1884EB95E06EEF0E94E30C64E649
:1005500070E080E090E00E948C180894E11CF11C8F
:10056000011D111D80E0E81681E0F80680E0080713
:1005700080E0180791F684EB95E040E452E46FE0E8
:1005800070E022E00E94200D84EB95E06EEF41E0E8
:100590000E949A0C84EB95E061E020E432E44FE0A5
:1005A00050E00E944A0C84EB95E040E452E46FE096
:1005B00070E022E00E94200D84EB95E061E041E0D4
:1005C0000E94CD0A84EB95E061E041E00E94CB0BF4
:1005D00084EB95E061E04FEF52E00E94160B1F9113
:1005E0000F91FF90EF900895FC018BE290E09183D2
:1005F00080830895FC01208131812B32310569F01F
:100600002C32310589F46115710521F06B327105C9
:1006100049F406C01182108205C06C32710511F4D4
:100620007183608320813181C9010895FC0180813B
:1006300091818B9721F08EEF92E00E941C02089529
:100640001F93FC01808191818B9741F18EEF92E0A5
:100650000E940D02181619060CF58EEF92E00E940A
:100660004D02182F8CEE97E06FE472E00E94111893
:100670008CEE97E0612F4AE050E00E948E178CEEDE
:1006800097E06FE572E00E941118113019F48DE0C7
:1006900061E002C08DE060E00E94041A1F9108959D
:1006A000CF93DF93EC010E942003888199818B32E4
:1006B000910551F18C32910549F0892BB1F564E631
:1006C00070E080E090E00E948C182FC08CEE97E0E4
:1006D00062E672E00E9411188EEF92E00E9417020B
:1006E0008EEF92E00E941202882321F4CE016BE289
:1006F00070E019C08CEE97E060E772E00E9411187C
:10070000CE0160E070E00FC08CEE97E06CE772E025
:100710000E94111868EE73E080E090E00E948C184F
:10072000CE016CE270E00E94FA02CE010E94160334
:10073000DF91CF91089580919C0508950F931F93A9
:10074000CF93DF93162F042FE90185E360E00E9429
:10075000041A1EBD0DB407FEFDCF902FFE0107C089
:100760001EBC0DB407FEFDCF91508EB58193992329
:10077000B9F785E361E00E94041A9E01200F311D44
:10078000C901DF91CF911F910F9108951F93162FEB
:1007900085E360E00E94041A1EBD0DB407FEFDCF84
:1007A0001EBC0DB407FEFDCF85E361E00E94041A74
:1007B0008EB51F91089560EB0E94C60308950F93B4
:1007C0001F93CF93DF93162F042FE90185E360E099
:1007D0000E94041A12601EBDFE01902F06C00DB4C7
:1007E00007FEFDCF81918EBD91509923C1F7C00FB7
:1007F000D11D0DB407FEFDCF85E361E00E94041A10
:10080000CE01DF91CF911F910F9108950F931F9308
:10081000182F062F85E360E00E94041A12601EBDA7
:100820000DB407FEFDCF0EBD0DB407FEFDCF85E371
:1008300061E00E94041A1F910F910895CF93DF93F6
:10084000EC0168EF0E94C603807C803489F081341B
:1008500018F4882319F128C0803819F0803C21F55C
:1008600019C0CE0168ED0E94C60381FD07C00CC00F
:10087000CE0168ED0E94C60381FD06C088ED6BECD9
:100880000E94060483E007C088ED69EC0E9406041C
:1008900082E001C081E080939C0506C088ED61ED97
:1008A0000E94060410929C05DF91CF9108951F933A
:1008B000CF93DF93EC0168EC0E94C60385FD02C074
:1008C00010E004C0CE010E941E0410E288EC612FEB
:1008D0000E940604812FDF91CF911F9108951F93ED
:1008E000CF93DF93EC01669B0AC010E08091030177
:1008F00083FF09C0812FDF91CF911F9108950E943E
:100900005704182FF3CFCE010E94DB03F3CF0F93D0
:100910001F93CF93DF938C0188E760E20E94060467
:1009200088E760E00E940604C0E0D0E004C02197A0
:1009300011F480E007C0C80168E60E94C60380FF8A
:10094000F6CF81E0DF91CF911F910F910895CF9362
:10095000DF93EC0188E86AE10E940604CE010E9460
:100960008704882331F48CEE97E061E972E00E94FD
:10097000141888ED61ED0E94060480ED60E60E9487
:10098000060488EE64E00E940604CE0168EE0E9430
:10099000C60382FFFACFCE010E941E0488EC60E2FB
:1009A0000E94060480E861E00E940604DF91CF9176
:1009B000089584E361E00E94511983E361E00E949D
:1009C000511982E360E00E94511985E361E00E94C1
:1009D000511985E361E00E94041A80E58CBD81E035
:1009E0008DBD8DB58EB508950F931F930E94D904C8
:1009F0006E9804E011E0F8018081877F808385E3B1
:100A000061E00E94511985E361E00E94041AF80137
:100A1000808184608083E5E0F1E080818460808370
:100A20001F910F9108950F931F930E94D9046E9800
:100A300004E011E0F8018081877F808385E361E035
:100A40000E94511985E361E00E94041AF801808137
:100A500084608083E5E0F1E08081846080831F9181
:100A60000F9108958091AD0508956093AD050895A7
:100A700070E0FB01EE0FFF1FE60FF71FE356FA4F82
:100A80002081318187E0489FA0011124240F351F68
:100A9000C901089570E0FB01EE0FFF1FE60FF71F7D
:100AA000E356FA4F5183408308957F928F929F922D
:100AB000AF92BF92CF92DF92EF92FF920F931F936C
:100AC000CF93DF93782EA92E162FB42E49010E94C2
:100AD0007E186B017C0188E893E1A0E0B0E0C80ECD
:100AE000D91EEA1EFB1EC0E0D0E000E0B12A30C0F3
:100AF00080EF6B2D0E94060417C0872D9A2D68EC9D
:100B00000E94C60387FF10C088EC60E80E940604BC
:100B1000872D9A2D68EF0E94C603182F1F7014307E
:100B200061F01E30E1F411C00E947E186C157D0545
:100B30008E059F0510F31FEF12C0219681149104BA
:100B400039F0C815D90521F40AC00F5F033039F018
:100B50000E947E186C157D058E059F0548F2812F39
:100B6000DF91CF911F910F91FF90EF90DF90CF9089
:100B7000BF90AF909F908F907F900895562F442301
:100B800029F060EA452F0E945505089560E8452F39
:100B90000E94550508952F923F924F925F926F9257
:100BA0007F928F929F92AF92BF92CF92DF92EF92FD
:100BB000FF920F931F93DF93CF93CDB7DEB72C97A0
:100BC0000FB6F894DEBF0FBECDBF8D839E834A83E0
:100BD000822E3F83912EFC82EB82462E552487E0A5
:100BE000489F100111243201660C771C640C751C9F
:100BF0008DE995E0680E791ED301ED91FC91E20D2F
:100C0000F31D12810E947E185B016C0188E893E15C
:100C1000A0E0B0E0A80EB91ECA1EDB1E112319F415
:100C20005EEFF52EACC0D301ED91FC91E20DF31D0A
:100C300088EE65810E940604202F392DC9013C01F0
:100C4000282D3F81C9014C01E12FF0E0F987E887A9
:100C5000FA81F062FA8777C09C868B8688859985B1
:100C60008815990510F49C878B879B8599838D81C6
:100C70009E8160E14B8593010E94DF0388E36B85D1
:100C80000E94060480EF6A850E9406048D819E8181
:100C900068EC0E94C60387FFF9CF88EC60E80E94E9
:100CA00006048D819E8168EF0E94C6034FE0F42EFA
:100CB000F822EE2400E010E034C00F5F1F4FAB813C
:100CC000BC81AB2B51F0BDE700301B0731F457C09E
:100CD000E394E3E0EE1609F452C088E360E00E947A
:100CE000060480E1D3016C910E94060488E36981C7
:100CF0000E94060480EF6A850E9406048D819E8111
:100D000068EC0E94C60387FFF9CF88EC60E80E9478
:100D100006048D819E8168EF0E94C6033FE0F32E9A
:100D2000F822FF2009F445C00E947E186A157B0551
:100D30008C059D05F0F5B4E0FB1609F4BECFEEE09E
:100D4000FE16E9F4C5CF8114910409F085CFF201B4
:100D5000EE0FFF1FE40DF51DE356FA4F00811181E0
:100D60008D819E8168EF0E94C60385FD02C080E4EC
:100D700001C080E8020D131DD80115968C938F2DAC
:100D80002C960FB6F894DEBF0FBECDBFCF91DF918A
:100D90001F910F91FF90EF90DF90CF90BF90AF9099
:100DA0009F908F907F906F905F904F903F902F908B
:100DB0000895EB85FC858E1A9F0A6E0E7F1EC3CFA9
:100DC0003F924F925F926F927F928F929F92AF92DB
:100DD000BF92CF92DF92EF92FF920F931F93CF9328
:100DE000DF93982E892E342E590138012701E62EE3
:100DF000FF2487E0489F60011124F701EE0FFF1FD9
:100E0000EE0DFF1DE356FA4F0190F081E02DEC0D41
:100E1000FD1D028188EE66810E940604C0E0D0E0DC
:100E2000892D982D60E0432D92010E94550588235D
:100E300009F046C0892D982D68EC0E94C60382FFF8
:100E40003FC0892D982D60E30E94C603182FC80F5C
:100E5000D11DAC16BD0640F0892D982D68E0412FBC
:100E600093010E949E033C0188EC64E00E9406040A
:100E7000101718F0CA15DB0598F2892D982D68EF28
:100E80000E94C603F701EE0FFF1F84FF0BC0EE0D9B
:100E9000FF1DE356FA4F0190F081E02DEC0DFD1D92
:100EA00080E20AC0EE0DFF1DE356FA4F0190F0817B
:100EB000E02DEC0DFD1D80E18683AC16BD0618F417
:100EC0002FEF3FEF01C09E01C901DF91CF911F912C
:100ED0000F91FF90EF90DF90CF90BF90AF909F90D9
:100EE0008F907F906F905F904F903F9008952F92DA
:100EF0003F924F925F926F927F928F929F92AF92AA
:100F0000BF92CF92DF92EF92FF920F931F93CF93F6
:100F1000DF93B82EA92E342E290148013701E62E81
:100F2000FF2487E0489F60011124F701EE0FFF1FA7
:100F3000EE0DFF1DE356FA4F0190F081E02DEC0D10
:100F4000FD1D228088EE66810E940604C0E0D0E08C
:100F50008B2D9A2D60E0432D93010E945505082F9B
:100F6000882309F042C08B2D9A2D68EC0E94C6039D
:100F700082FD02C000EF39C08B2D9A2D60E30E94E4
:100F8000C603182F8B2D9A2D68E0412F94010E94E3
:100F90009E034C0188EC64E00E940604121528F0C0
:100FA000C10FD11DC415D50598F28B2D9A2D68EF70
:100FB0000E94C603F701EE0FFF1F84FF0BC0EE0D6A
:100FC000FF1DE356FA4F0190F081E02DEC0DFD1D61
:100FD00080E20AC0EE0DFF1DE356FA4F0190F0814A
:100FE000E02DEC0DFD1D80E18683802FDF91CF91F8
:100FF0001F910F91FF90EF90DF90CF90BF90AF9037
:101000009F908F907F906F905F904F903F902F9028
:101010000895CF92DF92EF92FF920F931F93CF9399
:10102000DF93EC01862F90E0A42FB0E0EE20D9F002
:10103000FC01EE0FFF1FE80FF91FE356FA4FCD0139
:1010400053E0880F991F5A95E1F78A1B9B0B01907B
:10105000F081E02DE80FF91F80E28683CE01760152
:101060000E9477071AC0FC01EE0FFF1FE80FF91F5F
:10107000E356FA4FCD0153E0880F991F5A95E1F7D7
:101080008A1B9B0B0190F081E02DE80FF91F80E88F
:101090008583CE0176010E94CB05DF91CF911F9110
:1010A0000F91FF90EF90DF90CF9008954F925F9255
:1010B0006F927F928F929F92AF92BF92CF92DF9268
:1010C000EF92FF920F931F93DF93CF93CDB7DEB7CD
:1010D00028970FB6F894DEBF0FBECDBF3C01162F88
:1010E000F42ED22E4C8C5D8C80EE0E940604D982A8
:1010F0000A83EB82CC82BE82AD8298868F82C30146
:1011000060E248E09E012F5F3F4F0E94DF03C30172
:1011100060E14F2D2E8D3F8D0E945505082F8823AD
:1011200029F08CEE97E062EB72E019C0BD2CBB1C7D
:10113000BB24BB1C41145104E1F0C301612F4F2DAE
:1011400094018201EB2CC12CEDE7DE2E0E940908F0
:10115000082F882371F08CEE97E067EC72E00E9414
:1011600011188CEE97E0602F40E150E00E948E173E
:1011700008C0C3016F2D4B2D20E03DE70E94BE0546
:10118000082F802F28960FB6F894DEBF0FBECDBF74
:10119000CF91DF911F910F91FF90EF90DF90CF9053
:1011A000BF90AF909F908F907F906F905F904F9087
:1011B00008958F929F92AF92BF92CF92EF92FF923B
:1011C0000F931F93DF93CF93CDB7DEB762970FB620
:1011D000F894DEBF0FBECDBF082FE92E0E949B03FF
:1011E000813029F0813028F0843000F509C083E196
:1011F0001BC08091AD05807F8031C1F081E114C0BA
:101200008091AD05807F803189F40E947E186853FB
:101210007F4F8F4F9F4F6093AF057093B0058093C2
:10122000B1059093B20580E28093AD051091AD05B4
:10123000103409F448C0113440F4103261F1103315
:10124000E1F1113109F0F2C00AC0103609F477C09B
:10125000103709F4AAC0103509F0E8C057C0109241
:101260009F051092A1051092A0051092A205109260
:10127000A4051092A3051092A50586EA95E0909327
:101280009E0580939D0580E48093AB0580E180936B
:10129000AC0582E1C9C0E090AF05F090B0050091C7
:1012A000B1051091B2050E947E18E616F7060807F0
:1012B000190708F0BBC080E3B7C088EE61E00E9468
:1012C000060480E4B1C0802F9E2D68EE0E94C60304
:1012D00080FDACC0802F9E2D68ED0E94C603682F54
:1012E000686088ED0E94060480E58093AD050E9449
:1012F0007E186C5E7F4F8F4F9F4F6093AF0570934A
:10130000B0058093B1059093B20590C0802F9E2DBB
:1013100068EC0E94C60386FF89C0E090AF05F0909C
:10132000B0050091B1051091B2050E947E18E61635
:10133000F7060807190708F079C080E675C0E09144
:101340009D05F0919E0588E090E09383828300D014
:101350000F92CE010196EDB7FEB79283818380E0B4
:101360009DE794838383802F9E2D60E040E020E8FA
:1013700006E0EE24CC24C394AA24BB24F8E08F2EEC
:10138000912C0E9456080F900F900F900F90882379
:1013900049F4E0919D05F0919E0588858283138232
:1013A00080E742C01093AE053EC08091A0059091A9
:1013B000A105892B89F580919D0590919E059093BB
:1013C000A1058093A00500D00F92EDB7FEB7128261
:1013D000118280E09DE794838383802F9E2D60E0BF
:1013E00040E020E005E0EE24E394CC24AA24BB24D2
:1013F000882499240E9456080F900F900F900F9008
:10140000882329F481E08093B30580E803C010931A
:10141000AE0580EA8093AD058091AD05803731F44B
:101420008EEF8093AE0580EA8093AD0562960FB68D
:10143000F894DEBF0FBECDBFCF91DF911F910F910A
:10144000FF90EF90CF90BF90AF909F908F900895B6
:101450000E94130581E18093AD0510929F051092C3
:10146000A1051092A0051092A2051092A405109259
:10147000A3051092A50586EA95E090939E058093BA
:101480009D0580E48093AB0580E18093AC050895D1
:101490000F931F93CF93DF93EC010E947E186E5F32
:1014A0007F4F8F4F9F4F688379838A839B8319C0B7
:1014B0000E947E18288139814A815B8162177307F7
:1014C0008407950718F022E03FEF61C08CEE97E0AB
:1014D0000E94D4148F3F910521F08CEE97E00E947A
:1014E000F4148CEE97E00E94C31405970CF38CEE75
:1014F00097E00E94F414182F8E838CEE97E00E94E0
:10150000D4141F3F19F48F3F910519F024E03FEFE9
:101510003EC08CEE97E00E94F4148CEE97E00E949F
:10152000F4148CEE97E00E94F4148C018CEE97E09A
:101530000E94F4148E899F89009729F0222733276F
:10154000281B390B24C00E947E186E5F7F4F8F4F7F
:101550009F4F688379838A839B83015010400EC01C
:101560000E947E18288139814A815B816217730746
:101570008407950718F023E03FEF09C08CEE97E051
:101580000E94C314801791075CF320E030E0C9018A
:10159000DF91CF911F910F910895CF92DF92EF923B
:1015A000FF920F931F937C01D62EC42E862F805E50
:1015B000840F8095F7018483858161E00E94041A7D
:1015C0000CEE17E0C8016FEF0E942F15C8016FEFF6
:1015D0000E942F15C8016D2D0E942F15C80164E0CF
:1015E0000E942F15C80163E00E942F15C80169E110
:1015F0000E942F15C8016C2D0E942F15C801F701FC
:1016000064810E942F158CE090E00E94E518F7019C
:10161000858160E00E94041AC7010E94480A1F9158
:101620000F91FF90EF90DF90CF9008959F92AF922F
:10163000BF92CF92DF92EF92FF920F931F937C01A4
:10164000962E6A01A52EBB24A7FCBA94862F8A5E2B
:10165000840F8A0D8095F7018483858161E00E9463
:10166000041A0CEE17E0C8016FEF0E942F15C80195
:101670006FEF0E942F15C801692D0E942F15C80118
:1016800065E00E942F15C80163E00E942F15C80174
:101690006EE00E942F15C8016C2D0E942F15C80105
:1016A0006A2D0E942F15C801F70164810E942F1531
:1016B0008CE090E00E94E518F701858160E00E94CF
:1016C000041AC7010E94480A1F910F91FF90EF90E2
:1016D000DF90CF90BF90AF909F900895EF92FF92D0
:1016E0000F931F93CF93DF93EC01E62E8901632FB5
:1016F000772767FD7A95442311F4F62E03C074E032
:10170000F72EF60E8E2D885D800F8F0D80958C83C1
:101710008D8161E00E94041A8CEE97E06FEF0E94C9
:101720002F158CEE97E06FEF0E942F158CEE97E04F
:101730006E2D0E942F158CEE97E065E00E942F150C
:101740008CEE97E063E00E942F158CEE97E060E24C
:101750000E942F158CEE97E0602F0E942F158CEEC3
:1017600097E06F2D0E942F158CEE97E06C810E9400
:101770002F158CE090E00E94E5188D8160E00E94BA
:10178000041ACE010E94480ADF91CF911F910F9158
:10179000FF90EF9008951F93CF93DF93EC01162FE6
:1017A000442379F1862F805F80958C838D8161E061
:1017B0000E94041A8CEE97E06FEF0E942F158CEEBA
:1017C00097E06FEF0E942F158CEE97E0612F0E943B
:1017D0002F158CEE97E065E00E942F158CEE97E0B8
:1017E00063E00E942F158CEE97E068E00E942F15B1
:1017F0008CEE97E060E00E942F158CEE97E060E0A1
:1018000033C040E020E030E00E946E0B812F8E5EFE
:1018100080958C838D8161E00E94041A8CEE97E0A4
:101820006FEF0E942F158CEE97E06FEF0E942F153F
:101830008CEE97E0612F0E942F158CEE97E065E00B
:101840000E942F158CEE97E063E00E942F158CEE1E
:1018500097E068E00E942F158CEE97E06FEF0E94F2
:101860002F158CEE97E063E00E942F158CEE97E029
:101870006C810E942F158CE090E00E94E5188D810C
:1018800060E00E94041ACE010E94480ADF91CF91C5
:101890001F910895CF92DF92EF92FF920F931F93C3
:1018A0007C01C62E60E874E88EE190E00E94781A10
:1018B000D22EDA948C2D855F8D0D8095F70184836F
:1018C000858161E00E94041A0CEE17E0C8016FEFF9
:1018D0000E942F15C8016FEF0E942F15C8016C2DB3
:1018E0000E942F15C80164E00E942F15C80163E013
:1018F0000E942F15C80164E00E942F15C8016D2DAC
:101900000E942F15C801F70164810E942F1584EFF2
:1019100091E00E94E518F701858160E00E94041AB9
:10192000C7010E94480A1F910F91FF90EF90DF902E
:10193000CF900895CF92DF92EF92FF920F931F9373
:101940007C01D62EC42E862F865F840F8095F701EA
:101950008483858161E00E94041A0CEE17E0C801BF
:101960006FEF0E942F15C8016FEF0E942F15C8015D
:101970006D2D0E942F15C80164E00E942F15C8012B
:1019800063E00E942F15C80163E00E942F15C80173
:101990006C2D0E942F15C801F70164810E942F153C
:1019A0008CE090E00E94E518F701858160E00E94DC
:1019B000041AC7010E94480A1F910F91FF90EF90EF
:1019C000DF90CF900895DF92EF92FF920F931F93D5
:1019D0007C01D62E862F885F8095F70184838581D0
:1019E00061E00E94041A0CEE17E0C8016FEF0E943C
:1019F0002F15C8016FEF0E942F15C8016D2D0E9491
:101A00002F15C80162E00E942F15C80166E00E94F0
:101A10002F15C801F70164810E942F158CE090E01A
:101A20000E94E518F701858160E00E94041AC70151
:101A30000E94480A1F910F91FF90EF90DF90089548
:101A4000BF92CF92DF92EF92FF920F931F938C0180
:101A50006A017B01B22E822F61E00E945119F801C8
:101A6000B5828CEE97E0B701A6010E943D141F914C
:101A70000F91FF90EF90DF90CF90BF900895DF938C
:101A8000CF930F92CDB7DEB7FC016983A081B181FE
:101A90001C962D913C911D97BE016F5F7F4F41E0D9
:101AA00050E0F90119950F90CF91DF9108950895B5
:101AB000CF92DF92EF92FF920F931F93FC018B0165
:101AC000D42EC52E499661E0448D2D2D352FE12C65
:101AD0005DE7F52E0E94CB058D2D9C2D1F910F915A
:101AE000FF90EF90DF90CF900895EF92FF920F93C9
:101AF0001F93FC018B01DA017901499661E0438D66
:101B00009D010E94E0061F910F91FF90EF900895B4
:101B1000CF93DF93FC01E956FE4F11821082E75903
:101B2000F140EF01CB56DE4F19821882CF01EB5AFC
:101B3000FE4FBF0140E450E020E03DE70E94750DFC
:101B40001816190614F499838883DF91CF910895AC
:101B5000CF93DF93EC01FC01EB56FE4FC956DE4FED
:101B60002081318188819981C759D140281739074F
:101B700019F4CE010E94880DFE01E956FE4FCB56A6
:101B8000DE4F2881398180819181281B390BC90161
:101B9000DF91CF910895CF93DF93EC01FC01EB56D9
:101BA000FE4FC956DE4F2081318188819981C75906
:101BB000D1402817390719F4CE010E94880DC95663
:101BC000DE4F288139819A918A91C559D140821777
:101BD000930719F4EFEFFFEF07C0C20FD31FCB5AE3
:101BE000DE4F8881E82FF0E0CF01DF91CF9108959B
:101BF000CF93DF93EC01FC01EB56FE4FC956DE4F4D
:101C00002081318188819981C759D14028173907AE
:101C100019F4CE010E94880DDE01A956BE4F2D9108
:101C20003C911197CB56DE4F88819981C559D1409F
:101C30008217930719F4EFEFFFEF0BC0C20FD31F0A
:101C4000CB5ADE4F8881E82FF0E02F5F3F4F2D9376
:101C50003C93CF01DF91CF9108958F929F92AF92E5
:101C6000BF92CF92EF920F93DF93CF930F920F9289
:101C7000CDB7DEB72FEF3FEF3A83298300D00F9225
:101C80009E012F5F3F4FEDB7FEB73283218320E0E7
:101C90003DE734832383499640E020EC03E3EE24C0
:101CA000CC24AA24BB2472E0872E912C0E945608D3
:101CB0000F900F900F900F9089819A810F900F9045
:101CC000CF91DF910F91EF90CF90BF90AF909F9009
:101CD0008F9008952F923F924F925F926F927F92D2
:101CE0008F929F92AF92BF92CF92EF920F931F93DA
:101CF000DF93CF9300D000D0CDB7DEB79E838D8326
:101D0000162F1A013C832B8349969A83898365E5B4
:101D1000462E512C4D815E81440E551E00D00F92EF
:101D2000ADB7BEB712965C924E921197E0E0FDE718
:101D30001496FC93EE93139789819A81612F40E06A
:101D400020E806E0EE2452E0C52EAA24BB2434E0AD
:101D5000832E912C0E9456080F900F900F900F9099
:101D6000882329F08CEE97E068E572E03CC04D8155
:101D70005E81485A5F4FDA019C9180E02E91A75511
:101D8000B040BE83AD83622E7724682A792AB1E001
:101D90006B16B1E07B0628F08CEE97E06BE372E007
:101DA00022C000D00F92EDB7FEB75282418240E0D0
:101DB0005DE75483438389819A81612F40E020E865
:101DC00006E0EE24B2E0CB2EAA24BB2443010E94FD
:101DD00056080F900F900F900F90882341F08CEED3
:101DE00097E06EE172E00E94B01680E078C0520188
:101DF000D1011C92EB81FC811082A5E58A2E912CE9
:101E0000860C971C4D815E81840E951EF0E4CF2ECA
:101E1000E0E1EE2E48C0D5011C9111960C910430E2
:101E200049F0053071F0023079F58CEE97E061E110
:101E300072E004C08CEE97E061E072E00E94B016A0
:101E400030C0F1018081882329F4D50112968C914C
:101E500088232CF0EB81FC818081882311F5309759
:101E600001F1D50112968C9112978F77808313968A
:101E70008C911397818314968D919C9115979383E0
:101E80008283C582E6820DC08CEE97E06FEE71E032
:101E90000E94B0168CEE97E0602F40E150E00E9467
:101EA000A017A10EB11CA814B90408F4B4CFF10115
:101EB0008081882329F0AB81BC818C91882331F407
:101EC0008CEE97E060ED71E00E94F316F1018081E5
:101ED000882329F0AB81BC818C91811181E0269609
:101EE0000FB6F894DEBF0FBECDBFCF91DF911F912B
:101EF0000F91EF90CF90BF90AF909F908F907F9079
:101F00006F905F904F903F902F9008956F927F92C7
:101F10008F929F92AF92BF92CF92EF920F93DF93E7
:101F2000CF93CDB7DEB72E970FB6F894DEBF0FBEB6
:101F3000CDBF5C0161E04E010894811C911CA4019D
:101F40009E01285F3F4F0E946A0E882309F48DC0CE
:101F5000C5014D96FC0188E3DF011D928A95E9F7E2
:101F60006981862F90E0FC01B3E0EE0FFF1FBA9568
:101F7000E1F7E81BF90BEA0DFB1D7D96D40187E024
:101F80000D9001928150E1F728852617A1F0822F4C
:101F900090E0FC01A3E0EE0FFF1FAA95E1F7E81B1C
:101FA000F90BEA0DFB1D7D96DE01189687E00D907A
:101FB00001928150E1F7F501638F248F8CEE97E059
:101FC00040E150E00E94A0178CEE97E0688540E168
:101FD00050E00E94A01779E1672E712C6A0C7B1CDF
:101FE000C30160E040E00E943805D5015D96FC0128
:101FF00087E001900D928150E1F78DE190E0A80E0D
:10200000B91EC30161E0A5010E944A0500D00F92EC
:10201000ADB7BEB712961C921E92119780E09DE755
:1020200014969C938E931397C30161E040E020E0E7
:1020300009E0EE24E394CC24AA24BB248824992428
:102040000E9456080F900F900F900F90882341F038
:102050008CEE97E069EB71E00E94B01680E005C05D
:10206000C30160E90E94350581E02E960FB6F89411
:10207000DEBF0FBECDBFCF91DF910F91EF90CF901C
:10208000BF90AF909F908F907F906F9008958F92A8
:102090009F92AF92BF92CF92EF920F935A01D901C4
:1020A0000D900020E9F74D0100D00F92ADB7BEB7FB
:1020B0001196821A930AEDB7FEB7218311963C93CD
:1020C000119720E03DE713963C932E931297499683
:1020D00040E020E404E3EE24CC240E9456080F9054
:1020E0000F900F900F900F91EF90CF90BF90AF9007
:1020F0009F908F9008956F927F928F929F92AF9250
:10210000BF92CF92EF92FF920F931F93CF93DF93E3
:102110003C01F62E0E942D0E8C018CEE97E06EE7AE
:1021200072E00E94B0168CEE97E0B8014AE050E0F1
:102130000E94FE178CEE97E06CE772E00E94B016EA
:10214000F30124853585C3016F2D40E050E00E94E6
:102150004710F30126853785C3016F2D41E050E01C
:102160000E944710F30120893189C3016F2D42E09D
:1021700050E00E944710F30122893389C3016F2D7B
:1021800043E050E00E944710F30124893589C301E0
:102190006F2D44E050E00E944710F30126893789F3
:1021A000C3016F2D45E050E00E944710E30169969E
:1021B00000D00F92EDB7FEB71282118280E09DE74A
:1021C00094838383CE016F2D40E020E405E3EE2469
:1021D000CC24AA24BB24882499240E945608830175
:1021E000085E1F4F0F900F900F900F9006C0C80110
:1021F0000E946F04CE010E94D908CE010E943205D0
:102200008231A9F781E0DF91CF911F910F91FF906B
:10221000EF90CF90BF90AF909F908F907F906F90F6
:1022200008954F925F926F927F928F929F92AF929A
:10223000BF92CF92EF920F93CF93DF933C014896DA
:102240000E946F04E3016996CE010E94D908F30150
:10225000828D882309F078C0CE010E94320587FF65
:1022600073C0CE010E943205803909F46DC045E586
:10227000442E512C460C571C8CEE97E063EA71E01B
:102280000E94B0168CEE97E064E871E00E94B016F0
:1022900000D00F92EDB7FEB75282418280E09DE7F9
:1022A00094838383CE0161E040E020E806E0EE24E1
:1022B000CC24C394AA24BB2432E1832E912C0E9407
:1022C00056080F900F900F900F90882341F08CEEDE
:1022D00097E06EE471E00E94B01680E027C0F20142
:1022E00080859185815D9841A9F5F201828593856C
:1022F00080509D42029770F58CEE97E06FE271E09E
:102300000E94B016C3010E94860FF301828F0CC099
:10231000F301828D882331F08CEE97E064EE70E05B
:102320000E94F316F301128EF301828DDF91CF919B
:102330000F91EF90CF90BF90AF909F908F907F9034
:102340006F905F904F900895CE010E9432058231C8
:1023500059F7DECF8CEE97E06DEF70E00E94B0167B
:10236000C30161E00E947B10DFCF48960E94A70462
:1023700068EC70E080E090E00E948C180895AF92C5
:10238000BF92CF92DF92EF92FF920F931F935C0167
:10239000FC011382128288EE93E0A0E0B0E0848317
:1023A0009583A683B7838FED92E0918380837587B1
:1023B000648757874687318B208B138B028BF58A76
:1023C000E48AD78AC68AC50148960E94F404C501EA
:1023D00049960E94280AF501128E1F910F91FF90D5
:1023E000EF90DF90CF90BF90AF9008958AE995E08D
:1023F0000E94500308958AE995E00E94F4028CEE51
:1024000097E040E052EC61E070E00E943D148DE006
:1024100061E00E9451198DE061E00E94041A89E98F
:1024200095E00E947C02089508951F920F920FB6C6
:102430000F920BB60F9211242F933F934F938F93CC
:102440009F93EF93FF934091C60020910C0630912B
:102450000D062F5F3F4F2F73307080910E069091C5
:102460000F062817390759F0E0910C06F0910D0678
:10247000E453FA4F408330930D0620930C06FF91EE
:10248000EF919F918F914F913F912F910F900BBEA4
:102490000F900FBE0F901F90189508951F920F92E6
:1024A0000FB60F920BB60F9211242F933F934F93B9
:1024B0008F939F93EF93FF934091CE0020919406CA
:1024C000309195062F5F3F4F2F73307080919606A5
:1024D000909197062817390759F0E0919406F091EA
:1024E0009506EC5AF94F4083309395062093940655
:1024F000FF91EF919F918F914F913F912F910F906D
:102500000BBE0F900FBE0F901F90189508951F924D
:102510000F920FB60F920BB60F9211242F933F9389
:102520004F938F939F93EF93FF934091D600209109
:102530001C0730911D072F5F3F4F2F733070809124
:102540001E0790911F072817390759F0E0911C07C3
:10255000F0911D07E452F94F408330931D072093FB
:102560001C07FF91EF919F918F914F913F912F9178
:102570000F900BBE0F900FBE0F901F9018950895EF
:102580001F920F920FB60F920BB60F9211242F933A
:102590003F934F938F939F93EF93FF934091360117
:1025A0002091A4073091A5072F5F3F4F2F73307004
:1025B0008091A6079091A7072817390759F0E09155
:1025C000A407F091A507EC59F84F40833093A50775
:1025D0002093A407FF91EF919F918F914F913F918D
:1025E0002F910F900BBE0F900FBE0F901F9018955C
:1025F000E091F807F091F907E05CFF4F819191912C
:1026000020813181821B930B8F739070892B11F085
:102610000E941412E0911708F0911808E05CFF4F37
:102620008191919120813181821B930B8F739070E6
:10263000892B11F00E944D12E0913608F091370875
:10264000E05CFF4F8191919120813181821B930B3E
:102650008F739070892B11F00E948612E0915508BB
:10266000F0915608E05CFF4F81919191208131817A
:10267000821B930B8F739070892B11F00E94BF12F5
:1026800008951F920F920FB60F920BB60F9211245E
:102690002F933F938F939F93EF93FF932091500637
:1026A00030915106809152069091530628173907B0
:1026B00031F48091C1008F7D8093C10014C0E091FE
:1026C0005206F0915306E05FF94F20818091520647
:1026D0009091530601968F73907090935306809358
:1026E00052062093C600FF91EF919F918F913F91E9
:1026F0002F910F900BBE0F900FBE0F901F9018954B
:102700001F920F920FB60F920BB60F9211242F93B8
:102710003F938F939F93EF93FF932091D80630912F
:10272000D9068091DA069091DB062817390731F433
:102730008091C9008F7D8093C90014C0E091DA06B2
:10274000F091DB06E856F94F20818091DA069091EE
:10275000DB0601968F7390709093DB068093DA0608
:102760002093CE00FF91EF919F918F913F912F91F8
:102770000F900BBE0F900FBE0F901F9018951F92D9
:102780000F920FB60F920BB60F9211242F933F9317
:102790008F939F93EF93FF93209160073091610790
:1027A00080916207909163072817390731F480916F
:1027B000D1008F7D8093D10014C0E0916207F09129
:1027C0006307E05EF84F2081809162079091630774
:1027D00001968F73907090936307809362072093A4
:1027E000D600FF91EF919F918F913F912F910F9084
:1027F0000BBE0F900FBE0F901F9018951F920F9257
:102800000FB60F920BB60F9211242F933F938F9315
:102810009F93EF93FF932091E8073091E907809110
:10282000EA079091EB072817390731F480913101BD
:102830008F7D8093310114C0E091EA07F091EB079E
:10284000E855F84F20818091EA079091EB070196B7
:102850008F7390709093EB078093EA072093360173
:10286000FF91EF919F918F913F912F910F900BBE10
:102870000F900FBE0F901F901895AF92BF92DF92EE
:10288000EF92FF920F931F93CF93DF93EC017A01A6
:102890008B01DD24403081EE580780E0680780E03E
:1028A000780711F0DD24D39491E0A92EB12CEC89A6
:1028B000FD89DD2069F0C5010E8C02C0880F991FCB
:1028C0000A94E2F7808360E079E08DE390E005C050
:1028D000108260E874E88EE190E0A80197010E9400
:1028E000561A2150304040405040569547953795F4
:1028F000279580E12030380720F0DD2011F0DD241D
:10290000D6CFE889F9893083EA89FB892083EE896B
:10291000FF89408121E030E0C9010A8C02C0880FA4
:10292000991F0A94E2F7482B4083EE89FF89408182
:10293000C9010B8C02C0880F991F0A94E2F7482B3B
:102940004083EE89FF894081C9010C8C02C0880F49
:10295000991F0A94E2F7482B4083EE89FF89808112
:102960000D8C02C0220F331F0A94E2F72095282312
:102970002083DF91CF911F910F91FF90EF90DF9017
:10298000BF90AF900895DC011C96ED91FC911D97CE
:10299000E05CFF4F2191319180819181281B390B9F
:1029A0002F733070C9010895DC011C96ED91FC91E4
:1029B0001D97E05CFF4F20813181E054F040DF0142
:1029C000AE5BBF4F8D919C9111972817390719F471
:1029D0002FEF3FEF07C08D919C91E80FF91F808189
:1029E000282F30E0C9010895DC011C96ED91FC917F
:1029F0001D97E05CFF4F20813181E054F040DF0102
:102A0000AE5BBF4F8D919C9111972817390719F430
:102A10002FEF3FEF10C08D919C911197E80FF91F98
:102A200020818D919C91119701968F7390701196D2
:102A30009C938E9330E0C9010895FC0186859785AB
:102A4000DC01A05CBF4FFC01EE5BFF4F2D913C9180
:102A500011978081918128173907C1F70895CF9385
:102A6000DF93EC01EE85FF85E05CFF4F2081318133
:102A7000E054F0402F5F3F4F2F733070DF01AE5BAB
:102A8000BF4F8D919C91119728173907D1F3E05CC6
:102A9000FF4F80819181E054F040E80FF91F60837F
:102AA000EE85FF85E05CFF4F31832083EE89FF894F
:102AB000208181E090E00D8C02C0880F991F0A945C
:102AC000E2F7282B208381E090E0DF91CF910895F9
:102AD0001F931092EF071092EE0728EE33E040E0CC
:102AE00050E02093F0073093F1074093F2075093A2
:102AF000F30761EF72E07093ED076093EC078CECE5
:102B000095E09093F9078093F80780E196E0909321
:102B1000FB078093FA0785EC90E09093FD07809384
:102B2000FC0784EC90E09093FF078093FE0780EC15
:102B300090E0909301088093000881EC90E09093DE
:102B400003088093020886EC90E090930508809338
:102B5000040814E010930608B3E0B0930708A7E058
:102B6000A0930808F5E0F0930908E1E0E0930A0873
:102B700010920E0810920D0820930F083093100841
:102B8000409311085093120870930C0860930B083F
:102B900084E596E0909318088093170888E996E0FA
:102BA00090931A08809319088DEC90E090931C087C
:102BB00080931B088CEC90E090931E0880931D0876
:102BC00088EC90E09093200880931F0889EC90E0B7
:102BD00090932208809321088EEC90E09093240833
:102BE0008093230810932508B0932608A093270804
:102BF000F0932808E093290810922D0810922C08D1
:102C000020932E0830932F084093300850933108BA
:102C100070932B0860932A088CED96E09093370808
:102C20008093360880E297E09093390880933808C3
:102C300085ED90E090933B0880933A0884ED90E016
:102C400090933D0880933C0880ED90E090933F087E
:102C500080933E0881ED90E0909341088093400876
:102C600086ED90E0909343088093420810934408C7
:102C7000B0934508A0934608F0934708E0934808AE
:102C800010924C0810924B0820934D0830934E0838
:102C900040934F085093500870934A086093490836
:102CA00084E697E0909356088093550888EA97E069
:102CB000909358088093570885E391E090935A08C1
:102CC0008093590884E391E090935C0880935B08BB
:102CD00080E391E090935E0880935D0881E391E04A
:102CE0009093600880935F0886E391E09093620878
:102CF0008093610810936308B0936408A0936508FB
:102D0000F0936608E09367081F910895CF92DF92D1
:102D1000EF92FF920F931F93CF93DF937C016B0190
:102D20008A01C0E0D0E00FC0D6016D916D01D701DE
:102D3000ED91FC910190F081E02DC7011995C80F2C
:102D4000D91F015010400115110571F7CE01DF9117
:102D5000CF911F910F91FF90EF90DF90CF9008954A
:102D6000EF92FF920F931F93CF93DF937C018B0120
:102D7000C0E0D0E0F8010F5F1F4F6491662359F067
:102D8000D701ED91FC910190F081E02DC7011995DB
:102D9000C80FD91FEFCFCE01DF91CF911F910F91B7
:102DA000FF90EF900895EF92FF920F931F938C0185
:102DB000DC01ED91FC910190F081E02D6DE0199521
:102DC0007C01D801ED91FC910190F081E02DC801CA
:102DD0006AE019959C012E0D3F1DC9011F910F91AD
:102DE000FF90EF900895EF92FF920F931F937C0155
:102DF0000E94B0168C01C7010E94D3169C01200FBF
:102E0000311FC9011F910F91FF90EF900895CF934B
:102E1000DF93DB010D900020E9F71197A61BB70B9C
:102E2000EC01E881F9810280F381E02DAD01199573
:102E3000DF91CF9108954F925F927F928F929F92F0
:102E4000AF92BF92CF92DF92EF92FF920F931F93B8
:102E5000DF93CF93CDB7DEB7A1970FB6F894DEBF5F
:102E60000FBECDBF2C01742ECB01223008F42AE016
:102E700019A231E2C32ED12CCC0EDD1E822E992454
:102E8000AA24BB24672D752FA50194010E94561A10
:102E900079018A01C801B701A50194010E94371A7E
:102EA000472D461B0894C108D1084A3014F4405DF0
:102EB00001C0495CF6014083E114F10401051105EC
:102EC00021F07E2C5F2DC801DDCFC201B6010E942A
:102ED0000717A1960FB6F894DEBF0FBECDBFCF91F6
:102EE000DF911F910F91FF90EF90DF90CF90BF90F7
:102EF000AF909F908F907F905F904F900895DC01EE
:102F00002115310541F4ED91FC910190F081E02D06
:102F1000642F199508950E941B170895EF92FF9250
:102F20000F931F939A01E62EFF2400E010E0B801F2
:102F3000A7010E947F171F910F91FF90EF900895B6
:102F4000CF92DF92EF92FF920F931F936C01E62EC8
:102F50009A01FF2400E010E0B801A7010E947F174A
:102F60008C01C6010E94D316080F191FC8011F91BA
:102F70000F91FF90EF90DF90CF900895CF92DF9266
:102F8000EF92FF920F931F93CF93DF93EC016A01AF
:102F90007B012115310541F4E881F9810190F0812F
:102FA000E02D642F19951FC02A303105D1F477FF29
:102FB00017C0E881F9810190F081E02D6DE219954B
:102FC0008C0144275527BA014C195D096E097F0908
:102FD000CE012AE00E941B179801280F391F04C058
:102FE0002AE00E941B179C01C901DF91CF911F911C
:102FF0000F91FF90EF90DF90CF900895EF92FF92A6
:103000000F931F937B019A010027F7FC0095102F67
:10301000B801A7010E94BE171F910F91FF90EF907A
:1030200008950E9407170895EF92FF920F931F9340
:103030007C010E9407178C01C7010E94D316080F5C
:10304000191FC8011F910F91FF90EF900895CF9322
:10305000DF930E94EF180E94FB11C8EFD2E10E949B
:10306000F6112097E1F30E94F812F9CF1F920F9208
:103070000FB60F9211242F933F938F939F93AF938B
:10308000BF9380916C0890916D08A0916E08B091EB
:103090006F08309170080196A11DB11D232F2D5F7F
:1030A0002D3720F02D570196A11DB11D20937008DA
:1030B00080936C0890936D08A0936E08B0936F088E
:1030C0008091680890916908A0916A08B0916B0896
:1030D0000196A11DB11D8093680890936908A09383
:1030E0006A08B0936B08BF91AF919F918F913F9108
:1030F0002F910F900FBE0F901F9018958FB7F894D7
:1031000020916C0830916D0840916E0850916F08C5
:103110008FBFB901CA0108959B01AC017FB7F89434
:103120008091680890916908A0916A08B0916B0835
:1031300066B5A89B05C06F3F19F00196A11DB11D92
:103140007FBFBA2FA92F982F8827860F911DA11D09
:10315000B11D62E0880F991FAA1FBB1F6A95D1F7A6
:10316000BC012DC0FFB7F894809168089091690860
:10317000A0916A08B0916B08E6B5A89B05C0EF3F27
:1031800019F00196A11DB11DFFBFBA2FA92F982FCD
:1031900088278E0F911DA11DB11DE2E0880F991F98
:1031A000AA1FBB1FEA95D1F7861B970B885E934039
:1031B000C8F2215030404040504068517C4F2115AA
:1031C00031054105510571F60895019739F0880FD1
:1031D000991F880F991F02970197F1F70895789426
:1031E00084B5826084BD84B5816084BD85B582600C
:1031F00085BD85B5816085BDEEE6F0E080818160AA
:103200008083E1E8F0E010828081826080838081A9
:1032100081608083E0E8F0E0808181608083E1EB81
:10322000F0E0808184608083E0EBF0E08081816069
:103230008083E1E9F0E08081826080838081816029
:103240008083E0E9F0E0808181608083E1EAF0E062
:10325000808182608083808181608083E0EAF0E009
:10326000808181608083E1E2F1E0808182608083FF
:10327000808181608083E0E2F1E0808181608083F1
:10328000EAE7F0E0808184608083808182608083CF
:103290008081816080838081806880831092C100FA
:1032A0000895CF93DF93482F50E0CA01855D9C4F6E
:1032B000FC0134914B515D4FFA018491882369F1EF
:1032C00090E0880F991FFC01E956FD4FA591B4913C
:1032D000FC01EF54FD4FC591D491662351F42FB7F3
:1032E000F8948C91932F909589238C9388818923CE
:1032F0000BC0623061F42FB7F8948C91932F9095A6
:1033000089238C938881832B88832FBF06C09FB726
:10331000F8948C91832B8C939FBFDF91CF9108956C
:10332000893009F449C08A30A0F4843051F18530E5
:1033300040F4823079F1833000F5813009F063C0C8
:1033400026C0873079F1883098F5863009F05BC067
:1033500025C08D3009F442C08E3028F48B30B1F195
:103360008C30C0F52DC0803109F442C0813109F4A0
:1033700045C08F3009F047C037C0809180008F77FB
:1033800003C0809180008F7D80938000089584B574
:103390008F7702C084B58F7D84BD08958091B00081
:1033A0008F7703C08091B0008F7D8093B000089527
:1033B000809190008F7707C0809190008F7D03C02F
:1033C00080919000877F8093900008958091A00065
:1033D0008F7707C08091A0008F7D03C08091A000EF
:1033E000877F8093A0000895809120018F7703C08C
:1033F000809120018F7D809320010895809120018C
:10340000877F809320010895FF920F931F93F62EDC
:10341000482F50E0CA018F589C4FFC012491CA01EB
:10342000855D9C4FFC0114914B515D4FFA01049155
:103430000023C9F0222319F0822F0E949019E02F57
:10344000F0E0EE0FFF1FEF54FD4FA591B4919FB731
:10345000F894FF2021F48C911095812302C08C9167
:10346000812B8C939FBF1F910F91FF900895629FB6
:10347000D001739FF001829FE00DF11D649FE00D6C
:10348000F11D929FF00D839FF00D749FF00D659FCD
:10349000F00D9927729FB00DE11DF91F639FB00DCC
:1034A000E11DF91FBD01CF0111240895A1E21A2EDB
:1034B000AA1BBB1BFD010DC0AA1FBB1FEE1FFF1FD8
:1034C000A217B307E407F50720F0A21BB30BE40B28
:1034D000F50B661F771F881F991F1A9469F760956F
:1034E0007095809590959B01AC01BD01CF01089529
:1034F00097FB092E05260ED057FD04D0D7DF0AD042
:10350000001C38F450954095309521953F4F4F4F12
:103510005F4F0895F6F790958095709561957F4F70
:103520008F4F9F4F0895EE0FFF1F0590F491E02DF0
:063530001994F894FFCF8E
:1035360041726475696E6F2053410041726475690A
:103546006E6F426C696E6B4C4544004D6567615FFA
:1035560041444B00312E3000687474703A2F2F6C42
:103566006162732E61726475696E6F2E63632F617B
:10357600646B2F41444B5F636F756E74003100526C
:103586006561642066726F6D207573623A20000A69
:103596000D0054727920436F6E6E6563740A0D00D8
:1035A600436F6E6E65637465640A0D0050686F6ED6
:1035B6006520446973636F6E6E65637465640A0D96
:1035C600004572726F723A204F53434F4B49525126
:1035D600206661696C656420746F2061737365721F
:1035E60074005365747570207061636B6574206533
:1035F60072726F723A200044617461207061636B6D
:103606006574206572726F723A2000000000003FF8
:103616000D8616A80DF80DCB0D570D580D000000A0
:0E362600002F158616C314F414D4141D1500BD
:00000001FF
