:100000000C94DE010C940B020C940B020C940B026A
:100010000C940B020C940B020C940B020C940B022C
:100020000C940B020C940B020C940B020C940B021C
:100030000C940B020C940B020C940B020C940B020C
:100040000C940B020C940B020C940B020C940B02FC
:100050000C940B020C940B020C940B020C94BF1426
:100060000C940B020C949E0E0C94CA0F0C940B0271
:100070000C940B020C940B020C940B020C940B02CC
:100080000C940B020C940B020C940B020C940B02BC
:100090000C94D70E0C9409100C940B020C940B02C8
:1000A0000C940B020C940B020C940B020C940B029C
:1000B0000C940B020C940B020C940B020C940B028C
:1000C0000C940B020C940B020C940B020C94100F6A
:1000D0000C9448100C940B020C94490F0C9487104C
:1000E0000C940B02646973636F6E6E656374656470
:1000F00020757362206465766963650A00666F75B2
:100100006E6420706F737369626C652064657669D4
:1001100063652E0A20737769746368696E6720745B
:100120006F2073657269616C206D6F64650A00668B
:100130006F756E6420616E64726F696420616365BF
:1001400073736F7279206465766963650A000A4487
:1001500065766963652064657363726970746F7234
:100160002063616E6E6F74206265207265747269BF
:10017000657665642E20547279696E6720616761C7
:10018000696E0A0052657175657374696E672064E3
:1001900065766963652064657363726970746F72F4
:1001A0002E0A000A4465766963652061646472659D
:1001B000737365642E2E2E200043616E27742073A6
:1001C000657420636F6E66696720746F20310A0062
:1001D00063616E27742066696E6420616363657372
:1001E000736F727920656E64706F696E74730075D9
:1001F0006E6B6F776E206465736320747970652011
:1002000000696E7465726661636520646573630A74
:1002100000636F6E66696720646573630A004361FB
:100220006E27742067657420636F6E66696720644B
:10023000657363726970746F720A00636F6E6669CA
:10024000672064657363726970746F7220746F6F76
:10025000206C617267650A0043616E2774206765D0
:100260007420636F6E66696720646573637269707A
:10027000746F72206C656E6774680A000A006465AA
:100280007669636520737570706F72747320707215
:100290006F74636F6C200000002100240027002A87
:1002A000002D003000330001010000040107010AA5
:1002B0000100002200250028002B002E0031003410
:1002C0000002010000050108010B010000200023CD
:1002D00000260029002C002F00320000010000033E
:1002E00001060109010505050507050808080802BA
:1002F0000202020A0A0808040404040101010101BF
:100300000101010303030303030303040707070CAD
:100310000C0C0C0C0C0C0C02020202060606060663
:100320000606060B0B0B0B0B0B0B0B010210202010
:100330000808102040102040800201020108040239
:1003400001010204081020408080402010080402AF
:100350000180040201804020100804020108040208
:10036000010102040810204080010204081020400E
:10037000800000090A02080B0C0D070603040100A7
:10038000000000000000000000000000000000006D
:100390000000000000000000000000000011100F2D
:1003A000000000000000000000000000000000004D
:1003B00000000000000000007702F11111241FBEB0
:1003C000CFEFD1E2DEBFCDBF00E00CBF12E0A0E076
:1003D000B2E0EEEFFDE200E00BBF02C007900D922D
:1003E000AE3FB107D9F71BBE18E0AEEFB2E001C0D7
:1003F0001D92A835B107E1F713E0CCEBD3E004C0C0
:100400002297FE010E94F916C83BD107C9F70E9446
:10041000B0140C94FD160C9400008E5F9E4F0E9449
:10042000390A08958E5F9E4F0E94A20D08958E5F37
:100430009E4F0E94460E08951F93CF93DF93EC01C9
:100440008881882331F169818A81861790F4162F7B
:10045000109570E06D5F7F4F6C0F7D1FCE018E5F3A
:100460009E4F412F50E00E94E90919828881811B2B
:100470008883698170E06D5F7F4F6C0F7D1F4881BD
:10048000CE018E5F9E4F50E00E94E9098A818983E8
:100490001882DF91CF911F9108958E5F9E4F0E9429
:1004A000890A0895CF92DF92EF92FF920F931F93E4
:1004B000FC011082118212828E5F9E4F60E072E01A
:1004C0004BE052E02BE132E004E212E0F8E2EF2EE2
:1004D000F2E0FF2EEDE4CE2EE2E0DE2E0E94500E82
:1004E0001F910F91FF90EF90DF90CF9008958EEFC6
:1004F00092E00E9452020895FC018BE290E0918309
:1005000080830895FC01208131812B32310569F00F
:100510002C32310589F46115710521F06B327105BA
:1005200049F406C01182108205C06C32710511F4C5
:100530007183608320813181C9010895FC0180812C
:1005400091818B9721F08EEF92E00E941C0208951A
:100550001F93FC01808191818B9741F18EEF92E096
:100560000E940D02181619060CF58EEF92E00E94FB
:100570004D02182F83ED97E06FE472E00E949A1409
:1005800083ED97E0612F4AE050E00E94171483ED5D
:1005900097E06FE572E00E949A14113019F48DE033
:1005A00061E002C08DE060E00E9483161F91089513
:1005B000CF93DF93EC010E94A802888199818B324E
:1005C000910551F18C32910549F0892BB1F564E622
:1005D00070E080E090E00E9415152FC083ED97E059
:1005E00062E672E00E949A148EEF92E00E94170277
:1005F0008EEF92E00E941202882321F4CE016BE27A
:1006000070E019C083ED97E060E772E00E949A14F1
:10061000CE0160E070E00FC083ED97E06CE772E020
:100620000E949A1468EE73E080E090E00E94151535
:10063000CE016CE270E00E948202CE010E949E0216
:10064000DF91CF91089580919B0508950F931F939B
:10065000CF93DF93162F042FE90185E360E00E941A
:1006600083161EBD0DB407FEFDCF902FFE0107C0FF
:100670001EBC0DB407FEFDCF91508EB5819399231A
:10068000B9F785E361E00E9483169E01200F311DBA
:10069000C901DF91CF911F910F9108951F93162FDC
:1006A00085E360E00E9483161EBD0DB407FEFDCFFA
:1006B0001EBC0DB407FEFDCF85E361E00E948316EA
:1006C0008EB51F91089560EB0E944E0308950F931D
:1006D0001F93CF93DF93162F042FE90185E360E08A
:1006E0000E94831612601EBDFE01902F06C00DB43D
:1006F00007FEFDCF81918EBD91509923C1F7C00FA8
:10070000D11D0DB407FEFDCF85E361E00E94831685
:10071000CE01DF91CF911F910F9108950F931F93F9
:10072000182F062F85E360E00E94831612601EBD1D
:100730000DB407FEFDCF0EBD0DB407FEFDCF85E362
:1007400061E00E9483161F910F910895CF93DF936C
:10075000EC0168EF0E944E03807C803489F0813484
:1007600018F4882319F128C0803819F0803C21F54D
:1007700019C0CE0168ED0E944E0381FD07C00CC078
:10078000CE0168ED0E944E0381FD06C088ED6BEC42
:100790000E948E0383E007C088ED69EC0E948E03FF
:1007A00082E001C081E080939B0506C088ED61ED89
:1007B0000E948E0310929B05DF91CF9108951F93A5
:1007C000CF93DF93EC0168EC0E944E0385FD02C0DD
:1007D00010E004C0CE010E94A60310E288EC612F55
:1007E0000E948E03812FDF91CF911F9108951F9357
:1007F000CF93DF93EC01669B0AC010E08091030168
:1008000083FF09C0812FDF91CF911F9108950E942E
:10081000DF03182FF3CFCE010E946303F3CF0F93B2
:100820001F93CF93DF938C0188E760E20E948E03D1
:1008300088E760E00E948E03C0E0D0E004C021970A
:1008400011F480E007C0C80168E60E944E0380FFF3
:10085000F6CF81E0DF91CF911F910F910895CF9353
:10086000DF93EC0188E86AE10E948E03CE010E94CA
:100870000F04882331F483ED97E061E972E00E9470
:100880009D1488ED61ED0E948E0380ED60E60E946C
:100890008E0388EE64E00E948E03CE0168EE0E9413
:1008A0004E0382FFFACFCE010E94A60388EC60E2DD
:1008B0000E948E0380E861E00E948E03DF91CF9159
:1008C000089584E361E00E94D01583E361E00E9413
:1008D000D01582E360E00E94D01585E361E00E94BC
:1008E000D01585E361E00E94831680E58CBD81E030
:1008F0008DBD8DB58EB508950F931F930E94610431
:100900006E9804E011E0F8018081877F808385E3A1
:1009100061E00E94D01585E361E00E948316F80132
:10092000808184608083E5E0F1E080818460808361
:100930001F910F9108950F931F930E9461046E9869
:1009400004E011E0F8018081877F808385E361E026
:100950000E94D01585E361E00E948316F801808132
:1009600084608083E5E0F1E08081846080831F9172
:100970000F9108958091AC0508956093AC0508959A
:1009800070E0FB01EE0FFF1FE60FF71FE456FA4F72
:100990002081318187E0489FA0011124240F351F59
:1009A000C901089570E0FB01EE0FFF1FE60FF71F6E
:1009B000E456FA4F5183408308957F928F929F921D
:1009C000AF92BF92CF92DF92EF92FF920F931F935D
:1009D000CF93DF93782EA92E162FB42E49010E94B3
:1009E00007156B017C0188E893E1A0E0B0E0C80E38
:1009F000D91EEA1EFB1EC0E0D0E000E0B12A30C0E4
:100A000080EF6B2D0E948E0317C0872D9A2D68EC06
:100A10000E944E0387FF10C088EC60E80E948E039E
:100A2000872D9A2D68EF0E944E03182F1F701430E7
:100A300061F01E30E1F411C00E9407156C157D05B0
:100A40008E059F0510F31FEF12C0219681149104AB
:100A500039F0C815D90521F40AC00F5F033039F009
:100A60000E9407156C157D058E059F0548F2812FA4
:100A7000DF91CF911F910F91FF90EF90DF90CF907A
:100A8000BF90AF909F908F907F900895562F4423F2
:100A900029F060EA452F0E94DD04089560E8452FA3
:100AA0000E94DD0408952F923F924F925F926F92C1
:100AB0007F928F929F92AF92BF92CF92DF92EF92EE
:100AC000FF920F931F93DF93CF93CDB7DEB72C9791
:100AD0000FB6F894DEBF0FBECDBF8D839E834A83D1
:100AE000822E3F83912EFC82EB82462E552487E096
:100AF000489F100111243201660C771C640C751C90
:100B00008CE995E0680E791ED301ED91FC91E20D20
:100B1000F31D12810E9407155B016C0188E893E1C7
:100B2000A0E0B0E0A80EB91ECA1EDB1E112319F406
:100B30005EEFF52EACC0D301ED91FC91E20DF31DFB
:100B400088EE65810E948E03202F392DC9013C015A
:100B5000282D3F81C9014C01E12FF0E0F987E8879A
:100B6000FA81F062FA8777C09C868B8688859985A2
:100B70008815990510F49C878B879B8599838D81B7
:100B80009E8160E14B8593010E94670388E36B853A
:100B90000E948E0380EF6A850E948E038D819E8164
:100BA00068EC0E944E0387FFF9CF88EC60E80E9452
:100BB0008E038D819E8168EF0E944E034FE0F42EDC
:100BC000F822EE2400E010E034C00F5F1F4FAB812D
:100BD000BC81AB2B51F0BDE700301B0731F457C08F
:100BE000E394E3E0EE1609F452C088E360E00E946B
:100BF0008E0380E1D3016C910E948E0388E36981AA
:100C00000E948E0380EF6A850E948E038D819E81F3
:100C100068EC0E944E0387FFF9CF88EC60E80E94E1
:100C20008E038D819E8168EF0E944E033FE0F32E7C
:100C3000F822FF2009F445C00E9407156A157B05BC
:100C40008C059D05F0F5B4E0FB1609F4BECFEEE08F
:100C5000FE16E9F4C5CF8114910409F085CFF201A5
:100C6000EE0FFF1FE40DF51DE456FA4F00811181D0
:100C70008D819E8168EF0E944E0385FD02C080E455
:100C800001C080E8020D131DD80115968C938F2D9D
:100C90002C960FB6F894DEBF0FBECDBFCF91DF917B
:100CA0001F910F91FF90EF90DF90CF90BF90AF908A
:100CB0009F908F907F906F905F904F903F902F907C
:100CC0000895EB85FC858E1A9F0A6E0E7F1EC3CF9A
:100CD0003F924F925F926F927F928F929F92AF92CC
:100CE000BF92CF92DF92EF92FF920F931F93CF9319
:100CF000DF93982E892E342E590138012701E62ED4
:100D0000FF2487E0489F60011124F701EE0FFF1FC9
:100D1000EE0DFF1DE456FA4F0190F081E02DEC0D31
:100D2000FD1D028188EE66810E948E03C0E0D0E046
:100D3000892D982D60E0432D92010E94DD048823C7
:100D400009F046C0892D982D68EC0E944E0382FF61
:100D50003FC0892D982D60E30E944E03182FC80FC5
:100D6000D11DAC16BD0640F0892D982D68E0412FAD
:100D700093010E9426033C0188EC64E00E948E03EC
:100D8000101718F0CA15DB0598F2892D982D68EF19
:100D90000E944E03F701EE0FFF1F84FF0BC0EE0D04
:100DA000FF1DE456FA4F0190F081E02DEC0DFD1D82
:100DB00080E20AC0EE0DFF1DE456FA4F0190F0816B
:100DC000E02DEC0DFD1D80E18683AC16BD0618F408
:100DD0002FEF3FEF01C09E01C901DF91CF911F911D
:100DE0000F91FF90EF90DF90CF90BF90AF909F90CA
:100DF0008F907F906F905F904F903F9008952F92CB
:100E00003F924F925F926F927F928F929F92AF929A
:100E1000BF92CF92DF92EF92FF920F931F93CF93E7
:100E2000DF93B82EA92E342E290148013701E62E72
:100E3000FF2487E0489F60011124F701EE0FFF1F98
:100E4000EE0DFF1DE456FA4F0190F081E02DEC0D00
:100E5000FD1D228088EE66810E948E03C0E0D0E0F6
:100E60008B2D9A2D60E0432D93010E94DD04082F05
:100E7000882309F042C08B2D9A2D68EC0E944E0306
:100E800082FD02C000EF39C08B2D9A2D60E30E94D5
:100E90004E03182F8B2D9A2D68E0412F94010E944C
:100EA00026034C0188EC64E00E948E03121528F0A2
:100EB000C10FD11DC415D50598F28B2D9A2D68EF61
:100EC0000E944E03F701EE0FFF1F84FF0BC0EE0DD3
:100ED000FF1DE456FA4F0190F081E02DEC0DFD1D51
:100EE00080E20AC0EE0DFF1DE456FA4F0190F0813A
:100EF000E02DEC0DFD1D80E18683802FDF91CF91E9
:100F00001F910F91FF90EF90DF90CF90BF90AF9027
:100F10009F908F907F906F905F904F903F902F9019
:100F20000895CF92DF92EF92FF920F931F93CF938A
:100F3000DF93EC01862F90E0A42FB0E0EE20D9F0F3
:100F4000FC01EE0FFF1FE80FF91FE456FA4FCD0129
:100F500053E0880F991F5A95E1F78A1B9B0B01906C
:100F6000F081E02DE80FF91F80E28683CE01760143
:100F70000E94FF061AC0FC01EE0FFF1FE80FF91FC9
:100F8000E456FA4FCD0153E0880F991F5A95E1F7C7
:100F90008A1B9B0B0190F081E02DE80FF91F80E880
:100FA0008583CE0176010E945305DF91CF911F9179
:100FB0000F91FF90EF90DF90CF9008954F925F9246
:100FC0006F927F928F929F92AF92BF92CF92DF9259
:100FD000EF92FF920F931F93DF93CF93CDB7DEB7BE
:100FE00028970FB6F894DEBF0FBECDBF3C01162F79
:100FF000F42ED22E4C8C5D8C80EE0E948E03D98212
:101000000A83EB82CC82BE82AD8298868F82C30136
:1010100060E248E09E012F5F3F4F0E946703C301DB
:1010200060E14F2D2E8D3F8D0E94DD04082F882317
:1010300029F083ED97E062EB72E019C0BD2CBB1C78
:10104000BB24BB1C41145104E1F0C301612F4F2D9F
:1010500094018201EB2CC12CEDE7DE2E0E9491075A
:10106000082F882371F083ED97E067EC72E00E940F
:101070009A1483ED97E0602F40E150E00E9417142E
:1010800008C0C3016F2D4B2D20E03DE70E944605AF
:10109000082F802F28960FB6F894DEBF0FBECDBF65
:1010A000CF91DF911F910F91FF90EF90DF90CF9044
:1010B000BF90AF909F908F907F906F905F904F9078
:1010C00008958F929F92AF92BF92CF92EF92FF922C
:1010D0000F931F93DF93CF93CDB7DEB762970FB611
:1010E000F894DEBF0FBECDBF082FE92E0E94230368
:1010F000813029F0813028F0843000F509C083E187
:101100001BC08091AC05807F8031C1F081E114C0AB
:101110008091AC05807F803189F40E940715685367
:101120007F4F8F4F9F4F6093AE057093AF058093B5
:10113000B0059093B10580E28093AC051091AC05A9
:10114000103409F448C0113440F4103261F1103306
:10115000E1F1113109F0F2C00AC0103609F477C08C
:10116000103709F4AAC0103509F0E8C057C0109232
:101170009E051092A00510929F051092A105109255
:10118000A3051092A2051092A40585EA95E090931C
:101190009D0580939C0580E48093AA0580E180935F
:1011A000AB0582E1C9C0E090AE05F090AF050091BB
:1011B000B0051091B1050E940715E616F70608075D
:1011C000190708F0BBC080E3B7C088EE61E00E9459
:1011D0008E0380E4B1C0802F9E2D68EE0E944E03E6
:1011E00080FDACC0802F9E2D68ED0E944E03682FBD
:1011F000686088ED0E948E0380E58093AC050E94B4
:1012000007156C5E7F4F8F4F9F4F6093AE057093B5
:10121000AF058093B0059093B10590C0802F9E2DAF
:1012200068EC0E944E0386FF89C0E090AE05F09006
:10123000AF050091B0051091B1050E940715E616A3
:10124000F7060807190708F079C080E675C0E09135
:101250009C05F0919D0588E090E09383828300D007
:101260000F92CE010196EDB7FEB79283818380E0A5
:101270009DE794838383802F9E2D60E040E020E8EB
:1012800006E0EE24CC24C394AA24BB24F8E08F2EDD
:10129000912C0E94DE070F900F900F900F908823E3
:1012A00049F4E0919C05F0919D0588858283138225
:1012B00080E742C01093AD053EC080919F0590919C
:1012C000A005892B89F580919C0590919D059093AF
:1012D000A00580939F0500D00F92EDB7FEB7128254
:1012E000118280E09DE794838383802F9E2D60E0B0
:1012F00040E020E005E0EE24E394CC24AA24BB24C3
:10130000882499240E94DE070F900F900F900F9071
:10131000882329F481E08093B20580E803C010930C
:10132000AD0580EA8093AC058091AC05803731F43F
:101330008EEF8093AD0580EA8093AC0562960FB680
:10134000F894DEBF0FBECDBFCF91DF911F910F91FB
:10135000FF90EF90CF90BF90AF909F908F900895A7
:101360000E949B0481E18093AC0510929E0510922F
:10137000A00510929F051092A1051092A30510924E
:10138000A2051092A40585EA95E090939D058093AF
:101390009C0580E48093AA0580E18093AB050895C5
:1013A000DF93CF930F92CDB7DEB7FC016983A081A5
:1013B000B1811C962D913C911D97BE016F5F7F4FAF
:1013C00041E050E0F90119950F90CF91DF91089518
:1013D0000895CF92DF92EF92FF920F931F93FC013B
:1013E0008B01D42EC52E499661E0448D2D2D352FCD
:1013F000E12C5DE7F52E0E9453058D2D9C2D1F914C
:101400000F91FF90EF90DF90CF900895EF92FF92B1
:101410000F931F93FC018B01DA017901499661E07A
:10142000438D9D010E9468061F910F91FF90EF90E0
:101430000895CF93DF93FC01E956FE4F118210828D
:10144000E759F140EF01CB56DE4F19821882CF01E8
:10145000EB5AFE4FBF0140E450E020E03DE70E9420
:10146000060A1816190614F499838883DF91CF9120
:101470000895CF93DF93EC01FC01EB56FE4FC95664
:10148000DE4F2081318188819981C759D140281749
:10149000390719F4CE010E94190AFE01E956FE4FE0
:1014A000CB56DE4F2881398180819181281B390BF1
:1014B000C901DF91CF910895CF93DF93EC01FC0137
:1014C000EB56FE4FC956DE4F2081318188819981CC
:1014D000C759D1402817390719F4CE010E94190ABB
:1014E000C956DE4F288139819A918A91C559D140D8
:1014F0008217930719F4EFEFFFEF07C0C20FD31F56
:10150000CB5ADE4F8881E82FF0E0CF01DF91CF91F9
:101510000895CF93DF93EC01FC01EB56FE4FC956C3
:10152000DE4F2081318188819981C759D1402817A8
:10153000390719F4CE010E94190ADE01A956BE4FDF
:101540002D913C911197CB56DE4F88819981C559D9
:10155000D1408217930719F4EFEFFFEF0BC0C20FD2
:10156000D31FCB5ADE4F8881E82FF0E02F5F3F4F2B
:101570002D933C93CF01DF91CF9108958F929F924D
:10158000AF92BF92CF92EF920F93DF93CF930F92D0
:101590000F92CDB7DEB72FEF3FEF3A83298300D00C
:1015A0000F929E012F5F3F4FEDB7FEB7328321832D
:1015B00020E03DE734832383499640E020EC03E3B9
:1015C000EE24CC24AA24BB2472E0872E912C0E9406
:1015D000DE070F900F900F900F9089819A810F90E6
:1015E0000F90CF91DF910F91EF90CF90BF90AF9080
:1015F0009F908F9008952F923F924F925F926F929B
:101600007F928F929F92AF92BF92CF92EF920F9361
:101610001F93DF93CF9300D000D0CDB7DEB79E836A
:101620008D83162F1A013C832B8349969A838983D5
:1016300065E5462E512C4D815E81440E551E00D02D
:101640000F92ADB7BEB712965C924E921197E0E042
:10165000FDE71496FC93EE93139789819A81612F8D
:1016600040E020E806E0EE2452E0C52EAA24BB2488
:1016700034E0832E912C0E94DE070F900F900F9084
:101680000F90882329F083ED97E068E572E03CC075
:101690004D815E81485A5F4FDA019C9180E02E9126
:1016A000A755B040BE83AD83622E7724682A792A7D
:1016B000B1E06B16B1E07B0628F083ED97E06BE3B9
:1016C00072E022C000D00F92EDB7FEB75282418285
:1016D00040E05DE75483438389819A81612F40E034
:1016E00020E806E0EE24B2E0CB2EAA24BB2443017E
:1016F0000E94DE070F900F900F900F90882341F00B
:1017000083ED97E06EE172E00E94391380E078C0CB
:101710005201D1011C92EB81FC811082A5E58A2E39
:10172000912C860C971C4D815E81840E951EF0E4F1
:10173000CF2EE0E1EE2E48C0D5011C9111960C9100
:10174000043049F0053071F0023079F583ED97E00F
:1017500061E172E004C083ED97E061E072E00E9415
:10176000391330C0F1018081882329F4D501129604
:101770008C9188232CF0EB81FC818081882311F5EA
:10178000309701F1D50112968C9112978F77808353
:1017900013968C911397818314968D919C91159734
:1017A00093838283C582E6820DC083ED97E06FEE5E
:1017B00071E00E94391383ED97E0602F40E150E023
:1017C0000E942914A10EB11CA814B90408F4B4CFC6
:1017D000F1018081882329F0AB81BC818C91882321
:1017E00031F483ED97E060ED71E00E947C13F1012C
:1017F0008081882329F0AB81BC818C91811181E0AB
:1018000026960FB6F894DEBF0FBECDBFCF91DF9105
:101810001F910F91EF90CF90BF90AF909F908F90BE
:101820007F906F905F904F903F902F9008956F92B0
:101830007F928F929F92AF92BF92CF92EF920F932F
:10184000DF93CF93CDB7DEB72E970FB6F894DEBFF8
:101850000FBECDBF5C0161E04E010894811C911C5C
:10186000A4019E01285F3F4F0E94FB0A882309F4D0
:101870008DC0C5014D96FC0188E3DF011D928A955C
:10188000E9F76981862F90E0FC01B3E0EE0FFF1FBE
:10189000BA95E1F7E81BF90BEA0DFB1D7D96D40123
:1018A00087E00D9001928150E1F728852617A1F07D
:1018B000822F90E0FC01A3E0EE0FFF1FAA95E1F755
:1018C000E81BF90BEA0DFB1D7D96DE01189687E0FB
:1018D0000D9001928150E1F7F501638F248F83ED24
:1018E00097E040E150E00E94291483ED97E068857D
:1018F00040E150E00E94291479E1672E712C6A0CB6
:101900007B1CC30160E040E00E94C004D5015D96ED
:10191000FC0187E001900D928150E1F78DE190E0AC
:10192000A80EB91EC30161E0A5010E94D20400D037
:101930000F92ADB7BEB712961C921E92119780E01F
:101940009DE714969C938E931397C30161E040E04A
:1019500020E009E0EE24E394CC24AA24BB248824CC
:1019600099240E94DE070F900F900F900F9088230C
:1019700041F083ED97E069EB71E00E94391380E05C
:1019800005C0C30160E90E94BD0481E02E960FB638
:10199000F894DEBF0FBECDBFCF91DF910F91EF90D6
:1019A000CF90BF90AF909F908F907F906F90089551
:1019B0008F929F92AF92BF92CF92EF920F935A0164
:1019C000D9010D900020E9F74D0100D00F92ADB77D
:1019D000BEB71196821A930AEDB7FEB7218311960E
:1019E0003C93119720E03DE713963C932E9312977A
:1019F000499640E020E404E3EE24CC240E94DE0774
:101A00000F900F900F900F900F91EF90CF90BF908D
:101A1000AF909F908F9008956F927F928F929F9238
:101A2000AF92BF92CF92EF92FF920F931F93CF93FB
:101A3000DF933C01F62E0E94BE0A8C0183ED97E0F5
:101A40006EE772E00E94391383ED97E0B8014AE037
:101A500050E00E94871483ED97E06CE772E00E94EB
:101A60003913F30124853585C3016F2D40E050E023
:101A70000E94D80CF30126853785C3016F2D41E004
:101A800050E00E94D80CF30120893189C3016F2DE9
:101A900042E050E00E94D80CF30122893389C3014F
:101AA0006F2D43E050E00E94D80CF3012489358962
:101AB000C3016F2D44E050E00E94D80CF301268949
:101AC0003789C3016F2D45E050E00E94D80CE30137
:101AD000699600D00F92EDB7FEB71282118280E0B6
:101AE0009DE794838383CE016F2D40E020E405E3DE
:101AF000EE24CC24AA24BB24882499240E94DE0747
:101B00008301085E1F4F0F900F900F900F9006C03B
:101B1000C8010E94F703CE010E946108CE010E9415
:101B2000BA048231A9F781E0DF91CF911F910F9123
:101B3000FF90EF90CF90BF90AF909F908F907F904D
:101B40006F9008954F925F926F927F928F929F92C3
:101B5000AF92BF92CF92EF920F93CF93DF933C015E
:101B600048960E94F703E3016996CE010E9461083E
:101B7000F301828D882309F078C0CE010E94BA0457
:101B800087FF73C0CE010E94BA04803909F46DC08A
:101B900045E5442E512C460C571C83ED97E063EA33
:101BA00071E00E94391383ED97E064E871E00E94D0
:101BB000391300D00F92EDB7FEB75282418280E018
:101BC0009DE794838383CE0161E040E020E806E056
:101BD000EE24CC24C394AA24BB2432E1832E912C7E
:101BE0000E94DE070F900F900F900F90882341F016
:101BF00083ED97E06EE471E00E94391380E027C026
:101C0000F20180859185815D9841A9F5F201828577
:101C1000938580509D42029770F583ED97E06FE2C7
:101C200071E00E943913C3010E94170CF301828FE7
:101C30000CC0F301828D882331F083ED97E064EED0
:101C400070E00E947C13F301128EF301828DDF910C
:101C5000CF910F91EF90CF90BF90AF909F908F90CA
:101C60007F906F905F904F900895CE010E94BA04CC
:101C7000823159F7DECF83ED97E06DEF70E00E947F
:101C80003913C30161E00E940C0DDFCF48960E941A
:101C90002F0468EC70E080E090E00E941515089534
:101CA000AF92BF92CF92DF92EF92FF920F931F936A
:101CB0005C01FC011382128288EE93E0A0E0B0E0A8
:101CC00084839583A683B7838FED92E0918380838D
:101CD0007587648757874687318B208B138B028BE0
:101CE000F58AE48AD78AC68AC50148960E947C0490
:101CF000C50149960E94B009F501128E1F910F91FE
:101D0000FF90EF90DF90CF90BF90AF90089589E95A
:101D100095E00E94D802089589E995E00E947C022E
:101D200083ED97E040E052EC61E070E00E94C61065
:101D30008DE061E00E94D015089508951F920F92E2
:101D40000FB60F920BB60F9211242F933F934F9320
:101D50008F939F93EF93FF934091C6002091F305DB
:101D60003091F4052F5F3F4F2F7330708091F50550
:101D70009091F6052817390759F0E091F305F09195
:101D8000F405ED54FA4F40833093F4052093F305A6
:101D9000FF91EF919F918F914F913F912F910F90D4
:101DA0000BBE0F900FBE0F901F90189508951F92B5
:101DB0000F920FB60F920BB60F9211242F933F93F1
:101DC0004F938F939F93EF93FF934091CE00209179
:101DD0007B0630917C062F5F3F4F2F7330708091D0
:101DE0007D0690917E062817390759F0E0917B0611
:101DF000F0917C06E55CF94F408330937C0620939C
:101E00007B06FF91EF919F918F914F913F912F9181
:101E10000F900BBE0F900FBE0F901F901895089556
:101E20001F920F920FB60F920BB60F9211242F93A1
:101E30003F934F938F939F93EF93FF934091D600DF
:101E400020910307309104072F5F3F4F2F733070AD
:101E500080910507909106072817390759F0E091FE
:101E60000307F0910407ED53F94F408330930407C3
:101E700020930307FF91EF919F918F914F913F9195
:101E80002F910F900BBE0F900FBE0F901F901895C3
:101E900008951F920F920FB60F920BB60F92112456
:101EA0002F933F934F938F939F93EF93FF93409183
:101EB000360120918B0730918C072F5F3F4F2F7396
:101EC000307080918D0790918E072817390759F04F
:101ED000E0918B07F0918C07E55BF84F40833093DE
:101EE0008C0720938B07FF91EF919F918F914F91DA
:101EF0003F912F910F900BBE0F900FBE0F901F9030
:101F00001895E091DF07F091E007E05CFF4F8191C9
:101F1000919120813181821B930B8F739070892B5B
:101F200011F00E949D0EE091FE07F091FF07E05C2A
:101F3000FF4F8191919120813181821B930B8F738F
:101F40009070892B11F00E94D60EE0911D08F0913F
:101F50001E08E05CFF4F8191919120813181821BAD
:101F6000930B8F739070892B11F00E940F0FE091EB
:101F70003C08F0913D08E05CFF4F819191912081F8
:101F80003181821B930B8F739070892B11F00E940B
:101F9000480F08951F920F920FB60F920BB60F9233
:101FA00011242F933F938F939F93EF93FF9320914F
:101FB0003706309138068091390690913A062817F5
:101FC000390731F48091C1008F7D8093C10014C026
:101FD000E0913906F0913A06E950FA4F208180915C
:101FE000390690913A0601968F73907090933A0655
:101FF000809339062093C600FF91EF919F918F91B6
:102000003F912F910F900BBE0F900FBE0F901F901E
:1020100018951F920F920FB60F920BB60F921124C4
:102020002F933F938F939F93EF93FF932091BF063E
:102030003091C0068091C1069091C20628173907D9
:1020400031F48091C9008F7D8093C90014C0E09164
:10205000C106F091C206E158F94F20818091C10676
:102060009091C20601968F7390709093C2068093F0
:10207000C1062093CE00FF91EF919F918F913F91E8
:102080002F910F900BBE0F900FBE0F901F901895C1
:102090001F920F920FB60F920BB60F9211242F932F
:1020A0003F938F939F93EF93FF9320914707309136
:1020B00048078091490790914A072817390731F45A
:1020C0008091D1008F7D8093D10014C0E0914907A9
:1020D000F0914A07E95FF84F20818091490790917C
:1020E0004A0701968F73907090934A07809349072F
:1020F0002093D600FF91EF919F918F913F912F9167
:102100000F900BBE0F900FBE0F901F9018951F924F
:102110000F920FB60F920BB60F9211242F933F938D
:102120008F939F93EF93FF932091CF073091D00728
:102130008091D1079091D2072817390731F4809107
:1021400031018F7D8093310114C0E091D107F0916E
:10215000D207E157F84F20818091D1079091D207A3
:1021600001968F7390709093D2078093D10720933C
:102170003601FF91EF919F918F913F912F910F9099
:102180000BBE0F900FBE0F901F901895AF92BF928D
:10219000DF92EF92FF920F931F93CF93DF93EC01A7
:1021A0007A018B01DD24403081EE580780E068071A
:1021B00080E0780711F0DD24D39491E0A92EB12CB2
:1021C000EC89FD89DD2069F0C5010E8C02C0880F05
:1021D000991F0A94E2F7808360E079E08DE390E054
:1021E00005C0108260E874E88EE190E0A8019701D4
:1021F0000E94D5162150304040405040569547959A
:102200003795279580E12030380720F0DD2011F048
:10221000DD24D6CFE889F9893083EA89FB892083D8
:10222000EE89FF89408121E030E0C9010A8C02C0BB
:10223000880F991F0A94E2F7482B4083EE89FF89A3
:102240004081C9010B8C02C0880F991F0A94E2F7E4
:10225000482B4083EE89FF894081C9010C8C02C064
:10226000880F991F0A94E2F7482B4083EE89FF8973
:1022700080810D8C02C0220F331F0A94E2F7209553
:1022800028232083DF91CF911F910F91FF90EF9032
:10229000DF90BF90AF900895DC011C96ED91FC910A
:1022A0001D97E05CFF4F2191319180819181281B26
:1022B000390B2F733070C9010895DC011C96ED9124
:1022C000FC911D97E05CFF4F20813181E054F0408C
:1022D000DF01AE5BBF4F8D919C9111972817390795
:1022E00019F42FEF3FEF07C08D919C91E80FF91F74
:1022F0008081282F30E0C9010895DC011C96ED9102
:10230000FC911D97E05CFF4F20813181E054F0404B
:10231000DF01AE5BBF4F8D919C9111972817390754
:1023200019F42FEF3FEF10C08D919C911197E80F9A
:10233000F91F20818D919C91119701968F73907058
:1023400011969C938E9330E0C9010895FC01868517
:102350009785DC01A05CBF4FFC01EE5BFF4F2D9128
:102360003C9111978081918128173907C1F7089511
:10237000CF93DF93EC01EE85FF85E05CFF4F20817A
:102380003181E054F0402F5F3F4F2F733070DF01F9
:10239000AE5BBF4F8D919C91119728173907D1F3F0
:1023A000E05CFF4F80819181E054F040E80FF91F1D
:1023B0006083EE85FF85E05CFF4F31832083EE89EB
:1023C000FF89208181E090E00D8C02C0880F991F69
:1023D0000A94E2F7282B208381E090E0DF91CF91EF
:1023E00008951F931092D6071092D50728EE33E078
:1023F00040E050E02093D7073093D8074093D907A7
:102400005093DA0761EF72E07093D4076093D307BB
:1024100083EB95E09093E0078093DF0787EF95E0EB
:102420009093E2078093E10785EC90E09093E407B6
:102430008093E30784EC90E09093E6078093E507B0
:1024400080EC90E09093E8078093E70781EC90E0C0
:102450009093EA078093E90786EC90E09093EC076D
:102460008093EB0714E01093ED07B3E0B093EE0711
:10247000A7E0A093EF07F5E0F093F007E1E0E09329
:10248000F1071092F5071092F4072093F6073093A6
:10249000F7074093F8075093F9077093F307609399
:1024A000F2078BE396E09093FF078093FE078FE798
:1024B00096E090930108809300088DEC90E0909353
:1024C0000308809302088CEC90E0909305088093B9
:1024D000040888EC90E0909307088093060889EC44
:1024E00090E090930908809308088EEC90E0909318
:1024F0000B0880930A0810930C08B0930D08A09362
:102500000E08F0930F08E093100810921408109230
:10251000130820931508309316084093170850931A
:102520001808709312086093110883EC96E090935A
:102530001E0880931D0887E097E090932008809301
:102540001F0885ED90E0909322088093210884ED88
:1025500090E0909324088093230880ED90E090937E
:1025600026088093250881ED90E0909328088093B9
:10257000270886ED90E090932A088093290810930D
:102580002B08B0932C08A0932D08F0932E08E0930D
:102590002F08109233081092320820933408309399
:1025A000350840933608509337087093310860938C
:1025B00030088BE497E090933D0880933C088FE8C7
:1025C00097E090933F0880933E0885E391E09093D5
:1025D00041088093400884E391E0909343088093FE
:1025E000420880E391E0909345088093440881E39A
:1025F00091E0909347088093460886E391E090939A
:1026000049088093480810934A08B0934B08A09358
:102610004C08F0934D08E0934E081F910895CF9217
:10262000DF92EF92FF920F931F93CF93DF937C0182
:102630006B018A01C0E0D0E00FC0D6016D916D0141
:10264000D701ED91FC910190F081E02DC701199522
:10265000C80FD91F015010400115110571F7CE01A7
:10266000DF91CF911F910F91FF90EF90DF90CF906E
:102670000895EF92FF920F931F93CF93DF937C0106
:102680008B01C0E0D0E0F8010F5F1F4F649166231B
:1026900059F0D701ED91FC910190F081E02DC70137
:1026A0001995C80FD91FEFCFCE01DF91CF911F91A0
:1026B0000F91FF90EF900895EF92FF920F931F9369
:1026C0008C01DC01ED91FC910190F081E02D6DE039
:1026D00019957C01D801ED91FC910190F081E02DDC
:1026E000C8016AE019959C012E0D3F1DC9011F917B
:1026F0000F91FF90EF900895EF92FF920F931F9329
:102700007C010E9439138C01C7010E945C139C015B
:10271000200F311FC9011F910F91FF90EF90089575
:10272000CF93DF93DB010D900020E9F71197A61BF3
:10273000B70BEC01E881F9810280F381E02DAD0156
:102740001995DF91CF9108954F925F927F928F926A
:102750009F92AF92BF92CF92DF92EF92FF920F9330
:102760001F93DF93CF93CDB7DEB7A1970FB6F89441
:10277000DEBF0FBECDBF2C01742ECB01223008F47A
:102780002AE019A231E2C32ED12CCC0EDD1E822EFE
:102790009924AA24BB24672D752FA50194010E94BA
:1027A000D51679018A01C801B701A50194010E94DB
:1027B000B616472D461B0894C108D1084A3014F4B8
:1027C000405D01C0495CF6014083E114F10401055C
:1027D000110521F07E2C5F2DC801DDCFC201B601AD
:1027E0000E949013A1960FB6F894DEBF0FBECDBF26
:1027F000CF91DF911F910F91FF90EF90DF90CF90DD
:10280000BF90AF909F908F907F905F904F90089572
:10281000DC012115310541F4ED91FC910190F0812D
:10282000E02D642F199508950E94A4130895EF9246
:10283000FF920F931F939A01E62EFF2400E010E011
:10284000B801A7010E9408141F910F91FF90EF900B
:102850000895CF92DF92EF92FF920F931F936C0136
:10286000E62E9A01FF2400E010E0B801A7010E94C3
:1028700008148C01C6010E945C13080F191FC801BF
:102880001F910F91FF90EF90DF90CF900895CF921E
:10289000DF92EF92FF920F931F93CF93DF93EC01A0
:1028A0006A017B012115310541F4E881F98101902C
:1028B000F081E02D642F19951FC02A303105D1F425
:1028C00077FF17C0E881F9810190F081E02D6DE27A
:1028D00019958C0144275527BA014C195D096E09D9
:1028E0007F09CE012AE00E94A4139801280F391F06
:1028F00004C02AE00E94A4139C01C901DF91CF917A
:102900001F910F91FF90EF90DF90CF900895EF927D
:10291000FF920F931F937B019A010027F7FC00950C
:10292000102FB801A7010E9447141F910F91FF902B
:10293000EF9008950E9490130895EF92FF920F93E5
:102940001F937C010E9490138C01C7010E945C13AD
:10295000080F191FC8011F910F91FF90EF90089564
:10296000CF93DF930E946E150E948C0EC1E8DFE0CA
:102970000E94870E2097E1F30E94810FF9CF1F92EA
:102980000F920FB60F9211242F933F938F939F9323
:10299000AF93BF938091530890915408A09155082C
:1029A000B0915608309157080196A11DB11D232FF3
:1029B0002D5F2D3720F02D570196A11DB11D2093BD
:1029C00057088093530890935408A0935508B093E8
:1029D000560880914F0890915008A0915108B091ED
:1029E00052080196A11DB11D80934F089093500885
:1029F000A0935108B0935208BF91AF919F918F91CE
:102A00003F912F910F900FBE0F901F9018958FB789
:102A1000F8942091530830915408409155085091F2
:102A200056088FBFB901CA0108959B01AC017FB759
:102A3000F89480914F0890915008A0915108B0915E
:102A4000520866B5A89B05C06F3F19F00196A11DFD
:102A5000B11D7FBFBA2FA92F982F8827860F911DF0
:102A6000A11DB11D62E0880F991FAA1FBB1F6A95A7
:102A7000D1F7BC012DC0FFB7F89480914F08909119
:102A80005008A0915108B0915208E6B5A89B05C026
:102A9000EF3F19F00196A11DB11DFFBFBA2FA92F5D
:102AA000982F88278E0F911DA11DB11DE2E0880F80
:102AB000991FAA1FBB1FEA95D1F7861B970B885E4B
:102AC0009340C8F2215030404040504068517C4F04
:102AD000211531054105510571F60895789484B5A5
:102AE000826084BD84B5816084BD85B5826085BD0A
:102AF00085B5816085BDEEE6F0E0808181608083F0
:102B0000E1E8F0E0108280818260808380818160D2
:102B10008083E0E8F0E0808181608083E1EBF0E099
:102B2000808184608083E0EBF0E08081816080833D
:102B3000E1E9F0E080818260808380818160808330
:102B4000E0E9F0E0808181608083E1EAF0E080816B
:102B500082608083808181608083E0EAF0E0808110
:102B600081608083E1E2F1E0808182608083808106
:102B700081608083E0E2F1E0808181608083EAE728
:102B8000F0E08081846080838081826080838081A6
:102B9000816080838081806880831092C100089565
:102BA000CF93DF93482F50E0CA01855D9C4FFC0115
:102BB00034914B515D4FFA018491882369F190E083
:102BC000880F991FFC01E956FD4FA591B491FC01B6
:102BD000EF54FD4FC591D491662351F42FB7F8946B
:102BE0008C91932F909589238C93888189230BC096
:102BF000623061F42FB7F8948C91932F90958923CC
:102C00008C938881832B88832FBF06C09FB7F8944D
:102C10008C91832B8C939FBFDF91CF910895893046
:102C200009F449C08A30A0F4843051F1853040F471
:102C3000823079F1833000F5813009F063C026C01D
:102C4000873079F1883098F5863009F05BC025C06F
:102C50008D3009F442C08E3028F48B30B1F18C30C5
:102C6000C0F52DC0803109F442C0813109F445C05E
:102C70008F3009F047C037C0809180008F7703C044
:102C8000809180008F7D80938000089584B58F7738
:102C900002C084B58F7D84BD08958091B0008F7788
:102CA00003C08091B0008F7D8093B0000895809123
:102CB00090008F7707C0809190008F7D03C0809136
:102CC0009000877F8093900008958091A0008F7777
:102CD00007C08091A0008F7D03C08091A000877FF6
:102CE0008093A0000895809120018F7703C0809188
:102CF00020018F7D80932001089580912001877F9E
:102D0000809320010895FF920F931F93F62E482F72
:102D100050E0CA018F589C4FFC012491CA01855D87
:102D20009C4FFC0114914B515D4FFA01049100231B
:102D3000C9F0222319F0822F0E940F16E02FF0E035
:102D4000EE0FFF1FEF54FD4FA591B4919FB7F8947C
:102D5000FF2021F48C911095812302C08C91812B4E
:102D60008C939FBF1F910F91FF900895629FD00198
:102D7000739FF001829FE00DF11D649FE00DF11D36
:102D8000929FF00D839FF00D749FF00D659FF00DE5
:102D90009927729FB00DE11DF91F639FB00DE11DD2
:102DA000F91FBD01CF0111240895A1E21A2EAA1B1B
:102DB000BB1BFD010DC0AA1FBB1FEE1FFF1FA217EB
:102DC000B307E407F50720F0A21BB30BE40BF50BE8
:102DD000661F771F881F991F1A9469F76095709571
:102DE000809590959B01AC01BD01CF010895EE0F38
:0E2DF000FF1F0590F491E02D1994F894FFCF89
:102DFE0041726475696E6F2053410041726475694A
:102E0E006E6F426C696E6B4C4544004D6567615F39
:102E1E0041444B00312E3000687474703A2F2F6C81
:102E2E006162732E61726475696E6F2E63632F61BA
:102E3E00646B2F41444B5F636F756E7400310052AB
:102E4E006561642066726F6D207573623A20000AA8
:102E5E000D0054727920436F6E6E6563740A0D0017
:102E6E00436F6E6E65637465640A0D0050686F6E15
:102E7E006520446973636F6E6E65637465640A0DD5
:102E8E00004572726F723A204F53434F4B49525165
:102E9E00206661696C656420746F2061737365725E
:102EAE0074005365747570207061636B6574206572
:102EBE0072726F723A200044617461207061636BAC
:102ECE006574206572726F723A200000000000D0A7
:102EDE00090F13390A890A5C0AE809E9090000009A
:0E2EEE0000B8110F134C117D115D11A61100DB
:00000001FF
