:100000000C94DE010C940B020C940B020C940B026A
:100010000C940B020C940B020C940B020C940B022C
:100020000C940B020C940B020C940B020C940B021C
:100030000C940B020C940B020C940B020C940B020C
:100040000C940B020C940B020C940B020C940B02FC
:100050000C940B020C940B020C940B020C948F1357
:100060000C940B020C944F0E0C942F0F0C940B025B
:100070000C940B020C940B020C940B020C940B02CC
:100080000C940B020C940B020C940B020C940B02BC
:100090000C94870E0C946E0F0C940B020C940B02B4
:1000A0000C940B020C940B020C940B020C940B029C
:1000B0000C940B020C940B020C940B020C940B028C
:1000C0000C940B020C940B020C940B020C94BF0EBC
:1000D0000C94AD0F0C940B020C94F70E0C94EC0FD7
:1000E0000C940B02646973636F6E6E656374656470
:1000F00020757362206465766963650A00666F75B2
:100100006E6420706F737369626C652064657669D4
:1001100063652E0A20737769746368696E6720745B
:100120006F2073657269616C206D6F64650A00668B
:100130006F756E6420616E64726F696420616365BF
:1001400073736F7279206465766963650A000A4487
:1001500065766963652064657363726970746F7234
:100160002063616E6E6F74206265207265747269BF
:10017000657665642E20547279696E6720616761C7
:10018000696E0A0052657175657374696E672064E3
:1001900065766963652064657363726970746F72F4
:1001A0002E0A000A4465766963652061646472659D
:1001B000737365642E2E2E200043616E27742073A6
:1001C000657420636F6E66696720746F20310A0062
:1001D00063616E27742066696E6420616363657372
:1001E000736F727920656E64706F696E74730075D9
:1001F0006E6B6F776E206465736320747970652011
:1002000000696E7465726661636520646573630A74
:1002100000636F6E66696720646573630A004361FB
:100220006E27742067657420636F6E66696720644B
:10023000657363726970746F720A00636F6E6669CA
:10024000672064657363726970746F7220746F6F76
:10025000206C617267650A0043616E2774206765D0
:100260007420636F6E66696720646573637269707A
:10027000746F72206C656E6774680A000A006465AA
:100280007669636520737570706F72747320707215
:100290006F74636F6C200000002100240027002A87
:1002A000002D003000330001010000040107010AA5
:1002B0000100002200250028002B002E0031003410
:1002C0000002010000050108010B010000200023CD
:1002D00000260029002C002F00320000010000033E
:1002E00001060109010505050507050808080802BA
:1002F0000202020A0A0808040404040101010101BF
:100300000101010303030303030303040707070CAD
:100310000C0C0C0C0C0C0C02020202060606060663
:100320000606060B0B0B0B0B0B0B0B010210202010
:100330000808102040102040800201020108040239
:1003400001010204081020408080402010080402AF
:100350000180040201804020100804020108040208
:10036000010102040810204080010204081020400E
:10037000800000090A02080B0C0D070603040100A7
:10038000000000000000000000000000000000006D
:100390000000000000000000000000000011100F2D
:1003A000000000000000000000000000000000004D
:1003B00000000000000000007202D01011241FBED7
:1003C000CFEFD1E2DEBFCDBF00E00CBF12E0A0E076
:1003D000B2E0EAEDFAE200E00BBF02C007900D9236
:1003E000AC3BB107D9F71BBE18E0ACEBB2E001C0E3
:1003F0001D92A631B107E1F713E0CCEBD3E004C0C6
:100400002297FE010E946715C83BD107C9F70E94D9
:100410004A0E0C946B150C9400008E5F9E4F0E9448
:100420005B0D08958E5F9E4F0E94FF0D08951F93F0
:10043000CF93DF93EC018881882331F169818A8130
:10044000861790F4162F109570E06D5F7F4F6C0F3C
:100450007D1FCE018E5F9E4F412F50E00E94A2096A
:1004600019828881811B8883698170E06D5F7F4F6D
:100470006C0F7D1F4881CE018E5F9E4F50E00E9421
:10048000A2098A8189831882DF91CF911F910895F3
:100490008E5F9E4F0E94420A0895CF92DF92EF92A4
:1004A000FF920F931F93FC011082118212828E5FC4
:1004B0009E4F60E072E04BE052E02BE132E004E25C
:1004C00012E0F8E2EF2EF2E0FF2EEDE4CE2EE2E0B5
:1004D000DE2E0E94090E1F910F91FF90EF90DF908A
:1004E000CF9008958CEB92E00E944D020895FC019C
:1004F0008BE290E0918380830895FC01208131811B
:100500002B32310569F02C32310589F46115710502
:1005100021F06B32710549F406C01182108205C0CA
:100520006C32710511F47183608320813181C901BE
:100530000895FC01808191818B9721F08CEB92E0F2
:100540000E9417020895FC01808191818B9721F010
:100550008CEB92E00E9448020895CF93DF93EC0168
:100560000E94A302888199818B329105A1F08C971A
:10057000E9F48CEB92E00E9412028CEB92E00E9474
:100580000D02882321F4CE016BE270E00DC0CE0194
:1005900060E070E009C068EE73E080E090E00E94E7
:1005A000E513CE016CE270E00E947D02CE010E9454
:1005B0009902DF91CF9108958091590508950F9385
:1005C0001F93CF93DF93162F042FE90185E360E09B
:1005D0000E94F1141EBD0DB407FEFDCF902FFE0149
:1005E00007C01EBC0DB407FEFDCF91508EB58193A0
:1005F0009923B9F785E361E00E94F1149E01200F71
:10060000311DC901DF91CF911F910F9108951F9363
:10061000162F85E360E00E94F1141EBD0DB407FEA5
:10062000FDCF1EBC0DB407FEFDCF85E361E00E9447
:10063000F1148EB51F91089560EB0E940703089591
:100640000F931F93CF93DF93162F042FE90185E3B8
:1006500060E00E94F11412601EBDFE01902F06C0E2
:100660000DB407FEFDCF81918EBD91509923C1F746
:10067000C00FD11D0DB407FEFDCF85E361E00E94E0
:10068000F114CE01DF91CF911F910F9108950F9337
:100690001F93182F062F85E360E00E94F11412606B
:1006A0001EBD0DB407FEFDCF0EBD0DB407FEFDCF80
:1006B00085E361E00E94F1141F910F910895CF939B
:1006C000DF93EC0168EF0E940703807C803489F09F
:1006D000813418F4882319F128C0803819F0803C3F
:1006E00021F519C0CE0168ED0E94070381FD07C006
:1006F0000CC0CE0168ED0E94070381FD06C088EDA5
:100700006BEC0E94470383E007C088ED69EC0E9410
:10071000470382E001C081E08093590506C088ED5F
:1007200061ED0E94470310925905DF91CF91089522
:100730001F93CF93DF93EC0168EC0E94070385FDC4
:1007400002C010E004C0CE010E945F0310E288ECFA
:10075000612F0E944703812FDF91CF911F91089550
:100760001F93CF93DF93EC01669B0AC010E080914A
:10077000030183FF09C0812FDF91CF911F9108955D
:100780000E949803182FF3CFCE010E941C03F3CFD1
:100790000F931F93CF93DF938C0188E760E20E9451
:1007A000470388E760E00E944703C0E0D0E004C050
:1007B000219711F480E007C0C80168E60E94070392
:1007C00080FFF6CF81E0DF91CF911F910F910895C7
:1007D000CF93DF93EC0188E86AE10E944703CE01E2
:1007E0000E94C803882331F481E997E06FE472E046
:1007F0000E947C1388ED61ED0E94470380ED60E666
:100800000E94470388EE64E00E944703CE0168EE31
:100810000E94070382FFFACFCE010E945F0388EC9B
:1008200060E20E94470380E861E00E944703DF9195
:10083000CF91089584E361E00E943E1483E361E078
:100840000E943E1482E360E00E943E1485E361E072
:100850000E943E1485E361E00E94F11480E58CBDA6
:1008600081E08DBD8DB58EB508950F931F930E94C5
:100870001A046E9804E011E0F8018081877F80837C
:1008800085E361E00E943E1485E361E00E94F1147B
:10089000F801808184608083E5E0F1E080818460FC
:1008A00080831F910F9108950F931F930E941A0444
:1008B0006E9804E011E0F8018081877F808385E3F2
:1008C00061E00E943E1485E361E00E94F114F801AA
:1008D000808184608083E5E0F1E0808184608083B2
:1008E0001F910F91089580916A05089560936A059C
:1008F000089570E0FB01EE0FFF1FE60FF71FE65AA9
:10090000FA4F2081318187E0489FA0011124240FF4
:10091000351FC901089570E0FB01EE0FFF1FE60FC0
:10092000F71FE65AFA4F5183408308957F928F92C2
:100930009F92AF92BF92CF92DF92EF92FF920F936E
:100940001F93CF93DF93782EA92E162FB42E490133
:100950000E94D7136B017C0188E893E1A0E0B0E02E
:10096000C80ED91EEA1EFB1EC0E0D0E000E0B12A8E
:1009700030C080EF6B2D0E94470317C0872D9A2D42
:1009800068EC0E94070387FF10C088EC60E80E94B3
:100990004703872D9A2D68EF0E940703182F1F70B9
:1009A000143061F01E30E1F411C00E94D7136C15B1
:1009B0007D058E059F0510F31FEF12C0219681144F
:1009C000910439F0C815D90521F40AC00F5F03302E
:1009D00039F00E94D7136C157D058E059F0548F2EE
:1009E000812FDF91CF911F910F91FF90EF90DF90BA
:1009F000CF90BF90AF909F908F907F900895562F8B
:100A0000442329F060EA452F0E949604089560E887
:100A1000452F0E94960408952F923F924F925F9225
:100A20006F927F928F929F92AF92BF92CF92DF92FE
:100A3000EF92FF920F931F93DF93CF93CDB7DEB763
:100A40002C970FB6F894DEBF0FBECDBF8D839E836B
:100A50004A83822E3F83912EFC82EB82462E5524C0
:100A600087E0489F100111243201660C771C640C4A
:100A7000751C8AE595E0680E791ED301ED91FC9115
:100A8000E20DF31D12810E94D7135B016C0188E80F
:100A900093E1A0E0B0E0A80EB91ECA1EDB1E112330
:100AA00019F45EEFF52EACC0D301ED91FC91E20D8F
:100AB000F31D88EE65810E944703202F392DC9015F
:100AC0003C01282D3F81C9014C01E12FF0E0F9875D
:100AD000E887FA81F062FA8777C09C868B868885E2
:100AE00099858815990510F49C878B879B85998338
:100AF0008D819E8160E14B8593010E94200388E3F4
:100B00006B850E94470380EF6A850E9447038D81B1
:100B10009E8168EC0E94070387FFF9CF88EC60E8AC
:100B20000E9447038D819E8168EF0E9407034FE07A
:100B3000F42EF822EE2400E010E034C00F5F1F4FC7
:100B4000AB81BC81AB2B51F0BDE700301B0731F40A
:100B500057C0E394E3E0EE1609F452C088E360E086
:100B60000E94470380E1D3016C910E94470388E310
:100B700069810E94470380EF6A850E9447038D8147
:100B80009E8168EC0E94070387FFF9CF88EC60E83C
:100B90000E9447038D819E8168EF0E9407033FE01A
:100BA000F32EF822FF2009F445C00E94D7136A15DE
:100BB0007B058C059D05F0F5B4E0FB1609F4BECF6E
:100BC000EEE0FE16E9F4C5CF8114910409F085CF5B
:100BD000F201EE0FFF1FE40DF51DE65AFA4F0081FA
:100BE00011818D819E8168EF0E94070385FD02C0FF
:100BF00080E401C080E8020D131DD80115968C9386
:100C00008F2D2C960FB6F894DEBF0FBECDBFCF91BF
:100C1000DF911F910F91FF90EF90DF90CF90BF90E9
:100C2000AF909F908F907F906F905F904F903F908C
:100C30002F900895EB85FC858E1A9F0A6E0E7F1EFD
:100C4000C3CF3F924F925F926F927F928F929F920B
:100C5000AF92BF92CF92DF92EF92FF920F931F93CA
:100C6000CF93DF93982E892E342E59013801270116
:100C7000E62EFF2487E0489F60011124F701EE0F64
:100C8000FF1FEE0DFF1DE65AFA4F0190F081E02D97
:100C9000EC0DFD1D028188EE66810E944703C0E0D5
:100CA000D0E0892D982D60E0432D92010E9496049A
:100CB000882309F046C0892D982D68EC0E9407030F
:100CC00082FF3FC0892D982D60E30E940703182FF3
:100CD000C80FD11DAC16BD0640F0892D982D68E0D7
:100CE000412F93010E94DF023C0188EC64E00E94E6
:100CF0004703101718F0CA15DB0598F2892D982DB7
:100D000068EF0E940703F701EE0FFF1F84FF0BC07F
:100D1000EE0DFF1DE65AFA4F0190F081E02DEC0D2B
:100D2000FD1D80E20AC0EE0DFF1DE65AFA4F01904C
:100D3000F081E02DEC0DFD1D80E18683AC16BD0633
:100D400018F42FEF3FEF01C09E01C901DF91CF9151
:100D50001F910F91FF90EF90DF90CF90BF90AF90D9
:100D60009F908F907F906F905F904F903F900895ED
:100D70002F923F924F925F926F927F928F929F92AB
:100D8000AF92BF92CF92DF92EF92FF920F931F9399
:100D9000CF93DF93B82EA92E342E290148013701B5
:100DA000E62EFF2487E0489F60011124F701EE0F33
:100DB000FF1FEE0DFF1DE65AFA4F0190F081E02D66
:100DC000EC0DFD1D228088EE66810E944703C0E085
:100DD000D0E08B2D9A2D60E0432D93010E94960464
:100DE000082F882309F042C08B2D9A2D68EC0E94B1
:100DF000070382FD02C000EF39C08B2D9A2D60E3FE
:100E00000E940703182F8B2D9A2D68E0412F940123
:100E10000E94DF024C0188EC64E00E944703121537
:100E200028F0C10FD11DC415D50598F28B2D9A2D30
:100E300068EF0E940703F701EE0FFF1F84FF0BC04E
:100E4000EE0DFF1DE65AFA4F0190F081E02DEC0DFA
:100E5000FD1D80E20AC0EE0DFF1DE65AFA4F01901B
:100E6000F081E02DEC0DFD1D80E18683802FDF9168
:100E7000CF911F910F91FF90EF90DF90CF90BF9097
:100E8000AF909F908F907F906F905F904F903F902A
:100E90002F900895CF92DF92EF92FF920F931F93BE
:100EA000CF93DF93EC01862F90E0A42FB0E0EE20EB
:100EB000D9F0FC01EE0FFF1FE80FF91FE65AFA4FB9
:100EC000CD0153E0880F991F5A95E1F78A1B9B0BC0
:100ED0000190F081E02DE80FF91F80E28683CE01BA
:100EE00076010E94B8061AC0FC01EE0FFF1FE80F42
:100EF000F91FE65AFA4FCD0153E0880F991F5A9512
:100F0000E1F78A1B9B0B0190F081E02DE80FF91FA0
:100F100080E88583CE0176010E940C05DF91CF9198
:100F20001F910F91FF90EF90DF90CF9008954F9217
:100F30005F926F927F928F929F92AF92BF92CF9269
:100F4000DF92EF92FF920F931F93DF93CF93CDB772
:100F5000DEB728970FB6F894DEBF0FBECDBF3C01B9
:100F6000162FF42ED22E4C8C5D8C80EE0E944703FF
:100F7000D9820A83EB82CC82BE82AD8298868F8230
:100F8000C30160E248E09E012F5F3F4F0E942003B3
:100F9000C30160E14F2D2E8D3F8D0E949604082FD6
:100FA000882329F081E997E060E772E019C0BD2C41
:100FB000BB1CBB24BB1C41145104E1F0C301612FD5
:100FC0004F2D94018201EB2CC12CEDE7DE2E0E9407
:100FD0004A07082F882371F081E997E065E872E0FD
:100FE0000E94791381E997E0602F40E150E00E9470
:100FF000F61208C0C3016F2D4B2D20E03DE70E9483
:10100000FF04082F802F28960FB6F894DEBF0FBE7E
:10101000CDBFCF91DF911F910F91FF90EF90DF90A7
:10102000CF90BF90AF909F908F907F906F905F9088
:101030004F9008958F929F92AF92BF92CF92EF926E
:10104000FF920F931F93DF93CF93CDB7DEB76297D5
:101050000FB6F894DEBF0FBECDBF082FE92E0E9459
:10106000DC02813029F0813028F0843000F509C09D
:1010700083E11BC080916A05807F8031C1F081E1EE
:1010800014C080916A05807F803189F40E94D71353
:1010900068537F4F8F4F9F4F60936C0570936D0522
:1010A00080936E0590936F0580E280936A0510919E
:1010B0006A05103409F448C0113440F4103261F16B
:1010C0001033E1F1113109F0F2C00AC0103609F411
:1010D00077C0103709F4AAC0103509F0E8C057C02E
:1010E00010925C0510925E0510925D0510925F05EE
:1010F00010926105109260051092620583E695E0FA
:1011000090935B0580935A0580E48093680580E1A5
:101110008093690582E1C9C0E0906C05F0906D058F
:1011200000916E0510916F050E94D713E616F70621
:101130000807190708F0BBC080E3B7C088EE61E07C
:101140000E94470380E4B1C0802F9E2D68EE0E946C
:10115000070380FDACC0802F9E2D68ED0E94070321
:10116000682F686088ED0E94470380E580936A05D8
:101170000E94D7136C5E7F4F8F4F9F4F60936C051B
:1011800070936D0580936E0590936F0590C0802FCE
:101190009E2D68EC0E94070386FF89C0E0906C05D5
:1011A000F0906D0500916E0510916F050E94D713A8
:1011B000E616F7060807190708F079C080E675C03B
:1011C000E0915A05F0915B0588E090E0938382837B
:1011D00000D00F92CE010196EDB7FEB792838183C6
:1011E00080E09DE794838383802F9E2D60E040E024
:1011F00020E806E0EE24CC24C394AA24BB24F8E023
:101200008F2E912C0E9497070F900F900F900F90A8
:10121000882349F4E0915A05F0915B058885828323
:10122000138280E742C010936B053EC080915D053C
:1012300090915E05892B89F580915A0590915B0507
:1012400090935E0580935D0500D00F92EDB7FEB7D9
:101250001282118280E09DE794838383802F9E2DEC
:1012600060E040E020E005E0EE24E394CC24AA24F2
:10127000BB24882499240E9497070F900F900F9009
:101280000F90882329F481E08093700580E803C0E3
:1012900010936B0580EA80936A0580916A05803718
:1012A00031F48EEF80936B0580EA80936A05629635
:1012B0000FB6F894DEBF0FBECDBFCF91DF911F9167
:1012C0000F91FF90EF90CF90BF90AF909F908F9035
:1012D00008950E94540481E180936A0510925C0590
:1012E00010925E0510925D0510925F0510926105E7
:1012F000109260051092620583E695E090935B057D
:1013000080935A0580E48093680580E180936905A5
:101310000895DF93CF930F92CDB7DEB7FC016983B9
:10132000A081B1811C962D913C911D97BE016F5FEC
:101330007F4F41E050E0F90119950F90CF91DF9177
:1013400008950895CF92DF92EF92FF920F931F932B
:10135000FC018B01D42EC52E499661E0448D2D2DC4
:10136000352FE12C5DE7F52E0E940C058D2D9C2D6F
:101370001F910F91FF90EF90DF90CF900895EF9223
:10138000FF920F931F93FC018B01DA0179014996BB
:1013900061E0438D9D010E9421061F910F91FF90F6
:1013A000EF900895CF93DF93FC01E956FE4F118231
:1013B0001082E759F140EF01CB56DE4F19821882B7
:1013C000CF01EB5AFE4FBF0140E450E020E03DE783
:1013D0000E94BF091816190614F499838883DF91B7
:1013E000CF910895CF93DF93EC01FC01EB56FE4FB4
:1013F000C956DE4F2081318188819981C759D140FA
:101400002817390719F4CE010E94D209FE01E956C6
:10141000FE4FCB56DE4F2881398180819181281B78
:10142000390BC901DF91CF910895CF93DF93EC0180
:10143000FC01EB56FE4FC956DE4F20813181888179
:101440009981C759D1402817390719F4CE010E9454
:10145000D209C956DE4F288139819A918A91C5599E
:10146000D1408217930719F4EFEFFFEF07C0C20FC7
:10147000D31FCB5ADE4F8881E82FF0E0CF01DF91F8
:10148000CF910895CF93DF93EC01FC01EB56FE4F13
:10149000C956DE4F2081318188819981C759D14059
:1014A0002817390719F4CE010E94D209DE01A95686
:1014B000BE4F2D913C911197CB56DE4F888199817B
:1014C000C559D1408217930719F4EFEFFFEF0BC016
:1014D000C20FD31FCB5ADE4F8881E82FF0E02F5F79
:1014E0003F4F2D933C93CF01DF91CF9108958F9281
:1014F0009F92AF92BF92CF92EF920F93DF93CF93D1
:101500000F920F92CDB7DEB72FEF3FEF3A832983CB
:1015100000D00F929E012F5F3F4FEDB7FEB7328391
:10152000218320E03DE734832383499640E020EC8B
:1015300003E3EE24CC24AA24BB2472E0872E912C52
:101540000E9497070F900F900F900F9089819A81BA
:101550000F900F90CF91DF910F91EF90CF90BF90B0
:10156000AF909F908F9008952F923F924F925F92ED
:101570006F927F928F929F92AF92BF92CF92EF9293
:101580000F931F93DF93CF9300D000D0CDB7DEB77A
:101590009E838D83162F1A013C832B8349969A8351
:1015A000898365E5462E512C4D815E81440E551E82
:1015B00000D00F92ADB7BEB712965C924E921197C3
:1015C000E0E0FDE71496FC93EE93139789819A81EE
:1015D000612F40E020E806E0EE2452E0C52EAA2468
:1015E000BB2434E0832E912C0E9497070F900F901C
:1015F0000F900F90882329F081E997E068E572E069
:101600003CC04D815E81485A5F4FDA019C9180E079
:101610002E91A755B040BE83AD83622E7724682AF1
:10162000792AB1E06B16B1E07B0628F081E997E0FA
:101630006BE372E022C000D00F92EDB7FEB752828A
:10164000418240E05DE75483438389819A81612F21
:1016500040E020E806E0EE24B2E0CB2EAA24BB2432
:1016600043010E9497070F900F900F900F908823CF
:1016700041F081E997E06EE172E00E94181280E08B
:1016800078C05201D1011C92EB81FC811082A5E54A
:101690008A2E912C860C971C4D815E81840E951E9E
:1016A000F0E4CF2EE0E1EE2E48C0D5011C9111965A
:1016B0000C91043049F0053071F0023079F581E980
:1016C00097E061E172E004C081E997E061E072E0D7
:1016D0000E94181230C0F1018081882329F4D501BD
:1016E00012968C9188232CF0EB81FC8180818823D9
:1016F00011F5309701F1D50112968C9112978F77E1
:10170000808313968C911397818314968D919C916D
:10171000159793838283C582E6820DC081E997E0A5
:101720006FEE71E00E94181281E997E0602F40E1AE
:1017300050E00E940813A10EB11CA814B90408F4CB
:10174000B4CFF1018081882329F0AB81BC818C91D9
:10175000882331F481E997E060ED71E00E945B122B
:10176000F1018081882329F0AB81BC818C918111AA
:1017700081E026960FB6F894DEBF0FBECDBFCF91A5
:10178000DF911F910F91EF90CF90BF90AF909F90FE
:101790008F907F906F905F904F903F902F90089523
:1017A0006F927F928F929F92AF92BF92CF92EF9261
:1017B0000F93DF93CF93CDB7DEB72E970FB6F89484
:1017C000DEBF0FBECDBF5C0161E04E010894811CFD
:1017D000911CA4019E01285F3F4F0E94B40A8823F8
:1017E00009F48DC0C5014D96FC0188E3DF011D920F
:1017F0008A95E9F76981862F90E0FC01B3E0EE0F4E
:10180000FF1FBA95E1F7E81BF90BEA0DFB1D7D966A
:10181000D40187E00D9001928150E1F728852617C9
:10182000A1F0822F90E0FC01A3E0EE0FFF1FAA952C
:10183000E1F7E81BF90BEA0DFB1D7D96DE0118961A
:1018400087E00D9001928150E1F7F501638F248FBD
:1018500081E997E040E150E00E94081381E997E0B8
:10186000688540E150E00E94081379E1672E712CF1
:101870006A0C7B1CC30160E040E00E947904D50142
:101880005D96FC0187E001900D928150E1F78DE1BA
:1018900090E0A80EB91EC30161E0A5010E948B046F
:1018A00000D00F92ADB7BEB712961C921E92119740
:1018B00080E09DE714969C938E931397C30161E09B
:1018C00040E020E009E0EE24E394CC24AA24BB24E9
:1018D000882499240E9497070F900F900F900F90E3
:1018E000882341F081E997E069EB71E00E941812CA
:1018F00080E005C0C30160E90E94760481E02E9675
:101900000FB6F894DEBF0FBECDBFCF91DF910F9120
:10191000EF90CF90BF90AF909F908F907F906F90FF
:1019200008958F929F92AF92BF92CF92EF920F93B2
:101930005A01D9010D900020E9F74D0100D00F9216
:10194000ADB7BEB71196821A930AEDB7FEB72183E1
:1019500011963C93119720E03DE713963C932E930C
:101960001297499640E020E404E3EE24CC240E9440
:1019700097070F900F900F900F900F91EF90CF90CF
:10198000BF90AF909F908F9008956F927F928F92AB
:101990009F92AF92BF92CF92EF92FF920F931F93BD
:1019A000CF93DF933C01F62E0E94770A8C0181E9E8
:1019B00097E06EE772E00E94181281E997E0B801A3
:1019C0004AE050E00E94661381E997E06CE772E01C
:1019D0000E941812F30124853585C3016F2D40E064
:1019E00050E00E94910CF30126853785C3016F2DCD
:1019F00041E050E00E94910CF30120893189C3013C
:101A00006F2D42E050E00E94910CF301228933894E
:101A1000C3016F2D43E050E00E94910CF301248933
:101A20003589C3016F2D44E050E00E94910CF30111
:101A300026893789C3016F2D45E050E00E94910C43
:101A4000E301699600D00F92EDB7FEB712821182C2
:101A500080E09DE794838383CE016F2D40E020E4F6
:101A600005E3EE24CC24AA24BB24882499240E94D4
:101A700097078301085E1F4F0F900F900F900F90F4
:101A800006C0C8010E94B003CE010E941A08CE0110
:101A90000E9473048231A9F781E0DF91CF911F91F9
:101AA0000F91FF90EF90CF90BF90AF909F908F904D
:101AB0007F906F9008954F925F926F927F928F9276
:101AC0009F92AF92BF92CF92EF920F93CF93DF93FB
:101AD0003C0148960E94B003E3016996CE010E9442
:101AE0001A08F301828D882309F078C0CE010E9484
:101AF000730487FF73C0CE010E947304803909F418
:101B00006DC045E5442E512C460C571C81E997E0E9
:101B100063EA71E00E94181281E997E064E871E0DD
:101B20000E94181200D00F92EDB7FEB75282418288
:101B300080E09DE794838383CE0161E040E020E86C
:101B400006E0EE24CC24C394AA24BB2432E1832EE5
:101B5000912C0E9497070F900F900F900F90882361
:101B600041F081E997E06EE471E00E94181280E094
:101B700027C0F20180859185815D9841A9F5F20128
:101B80008285938580509D42029770F581E997E0A8
:101B90006FE271E00E941812C3010E94D00BF301A2
:101BA000828F0CC0F301828D882331F081E997E0A8
:101BB00064EE70E00E945B12F301128EF301828DDD
:101BC000DF91CF910F91EF90CF90BF90AF909F900A
:101BD0008F907F906F905F904F900895CE010E94FC
:101BE0007304823159F7DECF81E997E06DEF70E041
:101BF0000E941812C30161E00E94C50CDFCF489615
:101C00000E94E80368EC70E080E090E00E94E51339
:101C10000895AF92BF92CF92DF92EF92FF920F930F
:101C20001F935C01FC011382128288EE93E0A0E016
:101C3000B0E084839583A683B7838DE992E0918396
:101C400080837587648757874687318B208B138BFA
:101C5000028BF58AE48AD78AC68AC50148960E9413
:101C60003504C50149960E946909F501128E1F913C
:101C70000F91FF90EF90DF90CF90BF90AF900895BD
:101C800087E595E00E94AD02089587E595E00E9402
:101C9000770208950E94450E0E94400EFDCF1F92CC
:101CA0000F920FB60F920BB60F9211242F933F9302
:101CB0004F938F939F93EF93FF934091C600209192
:101CC000B1053091B2052F5F3F4F2F733070809177
:101CD000B3059091B4052817390759F0E091B10583
:101CE000F091B205EF58FA4F40833093B20520933C
:101CF000B105FF91EF919F918F914F913F912F915E
:101D00000F900BBE0F900FBE0F901F9018951F9253
:101D10000F920FB60F920BB60F9211242F933F9391
:101D20004F938F939F93EF93FF934091CE00209119
:101D3000390630913A062F5F3F4F2F7330708091F4
:101D40003B0690913C062817390759F0E091390677
:101D5000F0913A06E750FA4F408330933A062093C9
:101D60003906FF91EF919F918F914F913F912F9164
:101D70000F900BBE0F900FBE0F901F9018951F92E3
:101D80000F920FB60F920BB60F9211242F933F9321
:101D90004F938F939F93EF93FF934091D6002091A1
:101DA000C1063091C2062F5F3F4F2F733070809174
:101DB000C3069091C4062817390759F0E091C1066F
:101DC000F091C206EF57F94F40833093C20620933B
:101DD000C106FF91EF919F918F914F913F912F916C
:101DE0000F900BBE0F900FBE0F901F9018951F9273
:101DF0000F920FB60F920BB60F9211242F933F93B1
:101E00004F938F939F93EF93FF93409136012091CF
:101E1000490730914A072F5F3F4F2F7330708091F1
:101E20004B0790914C072817390759F0E091490763
:101E3000F0914A07E75FF84F408330934A072093B9
:101E40004907FF91EF919F918F914F913F912F9172
:101E50000F900BBE0F900FBE0F901F9018951F9202
:101E60000F920FB60F920BB60F9211242F933F9340
:101E70008F939F93EF93FF932091F5053091F60593
:101E80008091F7059091F8052817390731F4809172
:101E9000C1008F7D8093C10014C0E091F705F091DF
:101EA000F805EB54FA4F20818091F7059091F805E1
:101EB00001968F7390709093F8058093F7052093A7
:101EC000C600FF91EF919F918F913F912F910F90BD
:101ED0000BBE0F900FBE0F901F9018951F920F9280
:101EE0000FB60F920BB60F9211242F933F938F933F
:101EF0009F93EF93FF9320917D0630917E06809112
:101F00007F06909180062817390731F48091C90027
:101F10008F7D8093C90014C0E0917F06F091800608
:101F2000E35CF94F208180917F06909180060196B5
:101F30008F7390709093800680937F062093CE00DD
:101F4000FF91EF919F918F913F912F910F900BBE39
:101F50000F900FBE0F901F9018951F920F920FB603
:101F60000F920BB60F9211242F933F938F939F9351
:101F7000EF93FF93209105073091060780910707A3
:101F8000909108072817390731F48091D1008F7D8F
:101F90008093D10014C0E0910707F0910807EB533C
:101FA000F94F2081809107079091080701968F7360
:101FB000907090930807809307072093D600FF91B5
:101FC000EF919F918F913F912F910F900BBE0F90AA
:101FD0000FBE0F901F9018951F920F920FB60F9281
:101FE0000BB60F9211242F933F938F939F93EF93F0
:101FF000FF9320918D0730918E0780918F079091EC
:1020000090072817390731F4809131018F7D809333
:10201000310114C0E0918F07F0919007E35BF84F16
:10202000208180918F079091900701968F73907017
:102030009093900780938F0720933601FF91EF9143
:102040009F918F913F912F910F900BBE0F900FBEDC
:102050000F901F901895DC011C96ED91FC911D9737
:10206000E05CFF4F2191319180819181281B390BD8
:102070002F733070C9010895DC011C96ED91FC911D
:102080001D97E05CFF4F20813181E054F040DF017B
:10209000AE5BBF4F8D919C9111972817390719F4AA
:1020A0002FEF3FEF07C08D919C91E80FF91F8081C2
:1020B000282F30E0C9010895DC011C96ED91FC91B8
:1020C0001D97E05CFF4F20813181E054F040DF013B
:1020D000AE5BBF4F8D919C9111972817390719F46A
:1020E0002FEF3FEF10C08D919C911197E80FF91FD2
:1020F00020818D919C91119701968F73907011960C
:102100009C938E9330E0C9010895FC0186859785E4
:10211000DC01A05CBF4FFC01EE5BFF4F2D913C91B9
:1021200011978081918128173907C1F70895CF93BE
:10213000DF93EC01EE85FF85E05CFF4F208131816C
:10214000E054F0402F5F3F4F2F733070DF01AE5BE4
:10215000BF4F8D919C91119728173907D1F3E05CFF
:10216000FF4F80819181E054F040E80FF91F6083B8
:10217000EE85FF85E05CFF4F31832083EE89FF8988
:10218000208181E090E00D8C02C0880F991F0A9495
:10219000E2F7282B208381E090E0DF91CF91089532
:1021A0001F93109294071092930728EE33E040E0BB
:1021B00050E02093950730939607409397075093EC
:1021C00098076FEA72E0709392076093910781E736
:1021D00095E090939E0780939D0785EB95E0909303
:1021E000A00780939F0785EC90E09093A2078093CF
:1021F000A10784EC90E09093A4078093A30780EC60
:1022000090E09093A6078093A50781EC90E09093CF
:10221000A8078093A70786EC90E09093AA07809385
:10222000A90714E01093AB07B3E0B093AC07A7E0A5
:10223000A093AD07F5E0F093AE07E1E0E093AF07C0
:102240001092B3071092B2072093B4073093B507EA
:102250004093B6075093B7077093B1076093B007E8
:1022600089EF95E09093BD078093BC078DE396E0DE
:102270009093BF078093BE078DEC90E09093C107C9
:102280008093C0078CEC90E09093C3078093C207C3
:1022900088EC90E09093C5078093C40789EC90E0A8
:1022A0009093C7078093C6078EEC90E09093C90780
:1022B0008093C8071093CA07B093CB07A093CC07AD
:1022C000F093CD07E093CE071092D2071092D1077A
:1022D0002093D3073093D4074093D5075093D60764
:1022E0007093D0076093CF0781E896E09093DC0766
:1022F0008093DB0785EC96E09093DE078093DD0703
:1023000085ED90E09093E0078093DF0784ED90E007
:102310009093E2078093E10780ED90E09093E407CB
:102320008093E30781ED90E09093E6078093E507C3
:1023300086ED90E09093E8078093E7071093E90714
:10234000B093EA07A093EB07F093EC07E093ED0757
:102350001092F1071092F0072093F2073093F307E1
:102360004093F4075093F5077093EF076093EE07DF
:1023700089E097E09093FB078093FA078DE497E05C
:102380009093FD078093FC0785E391E09093FF070E
:102390008093FE0784E391E0909301088093000806
:1023A00080E391E0909303088093020881E391E039
:1023B000909305088093040886E391E090930708C2
:1023C0008093060810930808B0930908A0930A08A0
:1023D000F0930B08E0930C081F910895CF92DF92C1
:1023E000EF92FF920F931F93CF93DF937C016B01CA
:1023F0008A01C0E0D0E00FC0D6016D916D01D70118
:10240000ED91FC910190F081E02DC7011995C80F65
:10241000D91F015010400115110571F7CE01DF9150
:10242000CF911F910F91FF90EF90DF90CF90089583
:10243000EF92FF920F931F93CF93DF937C018B0159
:10244000C0E0D0E0F8010F5F1F4F6491662359F0A0
:10245000D701ED91FC910190F081E02DC701199514
:10246000C80FD91FEFCFCE01DF91CF911F910F91F0
:10247000FF90EF900895EF92FF920F931F938C01BE
:10248000DC01ED91FC910190F081E02D6DE019955A
:102490007C01D801ED91FC910190F081E02DC80103
:1024A0006AE019959C012E0D3F1DC9011F910F91E6
:1024B000FF90EF900895EF92FF920F931F937C018E
:1024C0000E9418128C01C7010E943B129C01200F30
:1024D000311FC9011F910F91FF90EF900895CF9385
:1024E000DF93DB010D900020E9F71197A61BB70BD6
:1024F000EC01E881F9810280F381E02DAD011995AD
:10250000DF91CF9108954F925F927F928F929F9229
:10251000AF92BF92CF92DF92EF92FF920F931F93F1
:10252000DF93CF93CDB7DEB7A1970FB6F894DEBF98
:102530000FBECDBF2C01742ECB01223008F42AE04F
:1025400019A231E2C32ED12CCC0EDD1E822E99248D
:10255000AA24BB24672D752FA50194010E94431561
:1025600079018A01C801B701A50194010E942415CF
:10257000472D461B0894C108D1084A3014F4405D29
:1025800001C0495CF6014083E114F1040105110525
:1025900021F07E2C5F2DC801DDCFC201B6010E9463
:1025A0006F12A1960FB6F894DEBF0FBECDBFCF91CC
:1025B000DF911F910F91FF90EF90DF90CF90BF9030
:1025C000AF909F908F907F905F904F900895DC0127
:1025D0002115310541F4ED91FC910190F081E02D40
:1025E000642F199508950E9483120895EF92FF9227
:1025F0000F931F939A01E62EFF2400E010E0B8012C
:10260000A7010E94E7121F910F91FF90EF9008958C
:10261000CF92DF92EF92FF920F931F936C01E62E01
:102620009A01FF2400E010E0B801A7010E94E71220
:102630008C01C6010E943B12080F191FC8011F918F
:102640000F91FF90EF90DF90CF900895CF92DF929F
:10265000EF92FF920F931F93CF93DF93EC016A01E8
:102660007B012115310541F4E881F9810190F08168
:10267000E02D642F19951FC02A303105D1F477FF62
:1026800017C0E881F9810190F081E02D6DE2199584
:102690008C0144275527BA014C195D096E097F0941
:1026A000CE012AE00E9483129801280F391F04C02E
:1026B0002AE00E9483129C01C901DF91CF911F91F2
:1026C0000F91FF90EF90DF90CF900895EF92FF92DF
:1026D0000F931F937B019A010027F7FC0095102FA1
:1026E000B801A7010E9426131F910F91FF90EF9050
:1026F00008950E946F120895EF92FF920F931F9317
:102700007C010E946F128C01C7010E943B12080FCE
:10271000191FC8011F910F91FF90EF9008951F920C
:102720000F920FB60F9211242F933F938F939F9385
:10273000AF93BF938091110890911208A091130854
:10274000B0911408309115080196A11DB11D232FD9
:102750002D5F2D3720F02D570196A11DB11D20931F
:1027600015088093110890931208A0931308B09352
:10277000140880910D0890910E08A0910F08B09157
:1027800010080196A11DB11D80930D0890930E08AD
:10279000A0930F08B0931008BF91AF919F918F91B4
:1027A0003F912F910F900FBE0F901F9018958FB7EC
:1027B000F89420911108309112084091130850911B
:1027C00014088FBFB901CA0108959B01AC017FB7FE
:1027D000F89480910D0890910E08A0910F08B09187
:1027E000100866B5A89B05C06F3F19F00196A11DA2
:1027F000B11D7FBFBA2FA92F982F8827860F911D53
:10280000A11DB11D62E0880F991FAA1FBB1F6A9509
:10281000D1F7BC012DC0FFB7F89480910D089091BD
:102820000E08A0910F08B0911008E6B5A89B05C04E
:10283000EF3F19F00196A11DB11DFFBFBA2FA92FBF
:10284000982F88278E0F911DA11DB11DE2E0880FE2
:10285000991FAA1FBB1FEA95D1F7861B970B885EAD
:102860009340C8F2215030404040504068517C4F66
:10287000211531054105510571F60895CF93DF9378
:10288000482F50E0CA01855D9C4FFC0134914B51AB
:102890005D4FFA018491882369F190E0880F991FB8
:1028A000FC01E956FD4FA591B491FC01EF54FD4F99
:1028B000C591D491662351F42FB7F8948C91932F3E
:1028C000909589238C93888189230BC0623061F4B1
:1028D0002FB7F8948C91932F909589238C938881AE
:1028E000832B88832FBF06C09FB7F8948C91832BCE
:1028F0008C939FBFDF91CF910895893009F449C02F
:102900008A30A0F4843051F1853040F4823079F17E
:10291000833000F5813009F063C026C0873079F13B
:10292000883098F5863009F05BC025C08D3009F4F9
:1029300042C08E3028F48B30B1F18C30C0F52DC000
:10294000803109F442C0813109F445C08F3009F06B
:1029500047C037C0809180008F7703C0809180008E
:102960008F7D80938000089584B58F7702C084B5F1
:102970008F7D84BD08958091B0008F7703C08091D2
:10298000B0008F7D8093B0000895809190008F7784
:1029900007C0809190008F7D03C080919000877F59
:1029A0008093900008958091A0008F7707C0809158
:1029B000A0008F7D03C08091A000877F8093A0003E
:1029C0000895809120018F7703C0809120018F7D31
:1029D00080932001089580912001877F80932001BA
:1029E0000895FF920F931F93F62E482F50E0CA01CF
:1029F0008F589C4FFC012491CA01855D9C4FFC01BE
:102A000014914B515D4FFA0104910023C9F0222328
:102A100019F0822F0E947D14E02FF0E0EE0FFF1FCF
:102A2000EF54FD4FA591B4919FB7F894FF2021F486
:102A30008C911095812302C08C91812B8C939FBF28
:102A40001F910F91FF900895629FD001739FF00135
:102A5000829FE00DF11D649FE00DF11D929FF00D2E
:102A6000839FF00D749FF00D659FF00D9927729F65
:102A7000B00DE11DF91F639FB00DE11DF91FBD01F0
:102A8000CF0111240895A1E21A2EAA1BBB1BFD0140
:102A90000DC0AA1FBB1FEE1FFF1FA217B307E4073D
:102AA000F50720F0A21BB30BE40BF50B661F771F95
:102AB000881F991F1A9469F7609570958095909575
:102AC0009B01AC01BD01CF010895EE0FFF1F0590E2
:0A2AD000F491E02D1994F894FFCF63
:102ADA0041726475696E6F20534100417264756971
:102AEA006E6F426C696E6B4C4544004D6567615F61
:102AFA0041444B00312E3000687474703A2F2F6CA9
:102B0A006162732E61726475696E6F2E63632F61E1
:102B1A00646B2F41444B5F636F756E7400310045DF
:102B2A0072726F723A204F53434F4B49525120668B
:102B3A0061696C656420746F2061737365727400D7
:102B4A005365747570207061636B65742065727269
:102B5A006F723A200044617461207061636B65741E
:102B6A00206572726F723A2000000000008909EE37
:102B7A0011F209420A150AA109A2090000000097E8
:0C2B8A0010EE112B105C103C10851000A8
:00000001FF
